:020000041000EA
:1000000000B5324B212058609868022188439860DF
:10001000D860186158612E4B002199600221596106
:100020000121F02299502B49196001219960352056
:1000300000F044F80222904214D00621196600F024
:1000400034F8196E01211966002018661A6600F04E
:100050002CF8196E196E196E052000F02FF8012189
:100060000842F9D1002199601B49196000215960AB
:100070001A491B48016001219960EB211966A021F2
:10008000196600F012F800219960164914480160C1
:100090000121996001BC002800D000471248134993
:1000A000086003C880F30888084703B5996A0420EC
:1000B0000142FBD001200142F8D103BD02B5186610
:1000C0001866FFF7F2FF186E186E02BD00000240BE
:1000D000000000180000070000035F00212200005C
:1000E000F4000018222000A00001001008ED00E03C
:1000F00000000000000000000000000074B24E7A12
:1001000000200420F7010010C3010010C5010010F9
:10011000C1010010C1010010C1010010C101001097
:10012000C1010010C1010010C1010010C701001081
:10013000C1010010C1010010C9010010CB01001065
:10014000CD010010CD010010CD010010CD01001037
:10015000CD010010CD010010CD010010CD01001027
:10016000CD010010CD010010CD010010CD01001017
:10017000CD010010CD010010CD010010CD01001007
:10018000CD010010CD010010CD010010CD010010F7
:10019000CD010010CD010010CD010010CD010010E7
:1001A000CD010010CD010010CD010010CD010010D7
:1001B000CD010010CD010010CD010010CD010010C7
:1001C00000BE00BE00BE00BE00BE00BEEFF3058054
:1001D000103800BEF2EB887144DF001068DF0010B9
:1001E0003402001090A31AE700201F49086006C8D7
:1001F00081F3088810471D48006800282FD10DA4FE
:100200000ECC002902D000F012F8F9E71849194A7B
:10021000002000E001C19142FCD1174988471749ED
:1002200088471749884700BEFDE701C901C29A42C5
:10023000FBD3704768DF0010C0000020D40C002002
:100240007CEB001000000420000004207CEB001078
:10025000001004200010042000000000704709482E
:1002600004F008FB0047000008ED00E0000000D0AB
:10027000D80C002068110020CD350010FD030010BF
:10028000893500105756000006005250ABB360533A
:1002900044D5001006005250861C030284C0001092
:1002A000060052505422A29D54D500100500525011
:1002B000DE65F4687CEB0010F8B5C04610B5064C5E
:1002C0002378002B07D1054B002B02D0044800E017
:1002D00000BF0123237010BDE80D002000000000C6
:1002E000F0BC0010044B10B5002B03D003490448A8
:1002F00000E000BF10BDC04600000000EC0D002073
:10030000F0BC001010B5094C23680133236000F0E5
:1003100089FC00F0E3FB411D2268054805F0DAFC8A
:10032000206800F09FFB012010BDC046581100203E
:10033000F0BC0010002803D1064B00221A60704761
:100340000128FCD10029FADD024B01221A60024B80
:100350001960F4E72C0F00203802002010B500F0DF
:100360008DFC00F0BBFB9023C358002B08DD1D4B18
:100370001B68002B11D11C4B1B68002B1AD110BD20
:100380001A4B1C6800F0AAFB9023C25821001848A1
:1003900005F0A0FC00F022FCEDE700F08FFB002848
:1003A000E9D1124B1A68134B1B689A42E3D300F051
:1003B000E1FBE0E700F092FB9023C358002BDED076
:1003C00000F08CFB441D00F089FB9023C2582100F3
:1003D000094805F07FFC00F001FC034B00221A6085
:1003E000CDE7C0462C0F00204C11002054110020F6
:1003F0001CBD00103802002044BD001030B58DB087
:1004000005F074FC192001F0DBF9D0231B068022D3
:1004100092045A62384805F02DFC384805F02AFC51
:1004200000F064FD00F076FD0500354805F052FC53
:100430000AA9344806F098FA0AA805F067FD0400F6
:100440000AE0314805F046FC0AA92E4806F08CFA6D
:100450000AA805F05BFD0400AC42F2DC002CF0DDE4
:1004600021002A4805F036FC651E0F2C21D000F033
:100470002FFA00F053FC01F0B5FF04AB0293002308
:100480000193234B0093234A002302F0F1F800F07C
:1004900025FB411D204805F01DFC00F0B3FC00F0D9
:1004A00069FB280000F03EFD00F05EFDFFF756FFFF
:1004B000FCE71A4805F00EFC0AA9124806F054FAA7
:1004C0000AA805F023FD0400002D0BDC144805F0FC
:1004D00001FC0AA90B4806F047FA0AA805F016FD28
:1004E0000400F1E721000F4805F0F4FB2100012092
:1004F000FFF720FFBBE7C04670BD00109CBD001099
:10050000B8BD0010C0BD0010C4BD0010E8BD001093
:100510000503001020A10700B8BE001004BE0010A3
:100520002CBE001064BE001000B583B0002808D0B7
:10053000002303600200083242608060C36003B0A1
:1005400000BD044B0093044B044A3F21044800F0D3
:100550009BFCC04614BF0010CCBE0010D4BF0010DE
:10056000E4BE001000B583B0002802D0406803B09C
:1005700000BD044B0093044B044A4A21044800F098
:1005800083FCC04614BF0010CCBE0010C8BF0010D2
:10059000E4BE001000B583B0002818D00368002B1B
:1005A00010D00023002B0AD1002812D00368002BA2
:1005B00011D04368002B00D00123002B0DD04068E0
:1005C00003B000BD4368002BECD00123EAE7002311
:1005D000E8E70023F1E70023EFE7044B0093044B27
:1005E000044A5421044800F04FFCC04624BF0010C8
:1005F000CCBE0010BCBF0010E4BE001000B583B03C
:10060000002802D0083003B000BD044B0093044B17
:10061000044A6021044800F037FCC04614BF0010B3
:10062000CCBE0010B0BF0010E4BE001000B583B017
:1006300000281DD00368002B1CD04368002B00D07D
:100640000123002B0AD1002816D00368002B15D0F7
:100650004368002B14D00023002B13D0002919D09D
:1006600003680B60486003685960016003B000BD17
:100670000023E6E70023E4E70023EDE70023EBE7B0
:100680000123E9E7074B0093074B084AAB210848D1
:1006900000F0FAFB074B0093034B044AAC310448CB
:1006A00000F0F2FB4CBF0010CCBE0010F8BF0010F1
:1006B000E4BE001078BF001010B50C00FFF79EFFDD
:1006C0002100FFF7B3FF10BD00B583B0002810D0A4
:1006D0000368002B0FD04368002B00D00123002BB0
:1006E0000BD002684368536002681A60406803B028
:1006F00000BD0023F3E70023F1E7044B0093044B14
:10070000044AFB21044800F0BFFBC04688BF00102C
:10071000CCBE0010ECBF0010E4BE001070B50500A8
:10072000FFF720FF04002800FFF768FF201A43426C
:100730005841C0B270BD000010B582B00400FFF790
:10074000EDFF002802D1606802B010BD8D21044B7E
:100750000093044B044A4900044800F095FBC0464E
:100760009CBF0010CCBE0010E0BF0010E4BE001023
:1007700010B5FFF7E1FF0400FFF7A6FF200010BD52
:10078000014B18687047C04658110020002806D059
:100790009423C258044B9A4203D000207047002093
:1007A000FCE70120FAE7C0464BBF6ACD6846000B64
:1007B00000037047014B18687047C0465011002075
:1007C000024B1868421C1A607047C0463C02002069
:1007D00030B583B004000D00FFF7D8FF002806D025
:1007E000AB070CD1A369581BA06103B030BD084B07
:1007F0000093084B084AB321084800F045FB084B1A
:100800000093044B044AB421044800F03DFBC04669
:1008100038C00010CCBE0010C8C2001004C00010C8
:1008200048C0001030B583B004000D0000281DD072
:10083000002923D09822002105F06EF802232371AD
:10084000601D1022290006F0E5F880235B01E31803
:10085000A36194230D4AE250043B0D4AE25021006B
:1008600024310C48FFF728FF03B030BD0A4B00933A
:100870000A4B0B4ADC210B4800F006FB0A4B0093A5
:10088000064B074ADD21074800F0FEFA4BBF6ACD50
:100890007F969800540E002068C00010CCBE001057
:1008A000D4C2001004C0001074C0001010B5064877
:1008B000FFF734FF002802D0044B186810BD02482F
:1008C000FFF756FF2C38F9E71C0F0020F40E00202C
:1008D00070B51048FFF728FE0F48FFF725FE0F48B8
:1008E000FFF722FEFFF762FF0D4C20600D49FFF776
:1008F00099FF256800232B71FFF762FF28602168AC
:10090000094B19600A790B680531084805F0E2F9CE
:1009100070BDC0461C0F0020540E0020FC0E0020AD
:10092000F80E002084C00010501100208CC0001070
:1009300010B582B00400FFF729FF00280BD02379FF
:10094000022B11D121002C310C48FFF7B5FE0123F9
:10095000237102B010BD3A21094B0093094B0A4A9A
:10096000FF310A4800F090FA9E21094B0093054B95
:10097000054A4900054800F087FAC0461C0F0020D0
:1009800038C00010CCBE0010B8C2001004C0001067
:10099000DCC0001010B582B00400FFF70BFF00238D
:1009A00003710E4A1360002C02D02379032B01D06F
:1009B00002B010BD0A4B1B68A342F9D0A04203D07D
:1009C000200004F09DFFF3E7F721064B0093064B50
:1009D000064A4900064800F057FAC0465411002064
:1009E000F80E0020F8C00010CCBE001094C2001019
:1009F00004C0001030B583B0FFF7DCFE0400FFF741
:100A000055FF05002379002B0DD0FFF7BFFE00280E
:100A100012D0AC4219D02900200000F04DFAFFF7A7
:100A2000B9FF03B030BDBE21094B0093094B0A4A00
:100A300049000A4800F028FA7E21094B0093054B33
:100A4000054AFF31054800F01FFA0020E7E7C046DD
:100A500004C10010CCBE0010ACC2001004C00010D5
:100A600024C10010F8B506001248FFF77BFD040012
:100A70000BE021002739104805F02CF92000FFF782
:100A800023FE04003800FFF753FF0A48FFF7B6FDC6
:100A900084420ED027002C3FF317BD6BFA6B9A42AD
:100AA00002D8E6D1B542E4D92000FFF773FD040077
:100AB000EBE7F8BDFC0E002038C1001010B502486D
:100AC000FFF72CFE10BDC0461C0F00200023037151
:100AD000014B18607047C0465011002010B582B01D
:100AE000FFF768FE0400FFF751FE002805D02379C8
:100AF000002B0AD1200002B010BD084B0093084B18
:100B0000084A0949094800F0BFF9094B0093044B12
:100B1000044A0849054800F0B7F9C04638C000103B
:100B2000CCBE001084C200106902000004C0001096
:100B300050C100106A02000010B5EFF3108472B6C5
:100B4000FFF7CCFF02230371FFF754FF84F31088F3
:100B500010BD000010B5054805F08CF8FFF7BEFF8A
:100B6000034B1860FFF7E8FFFCE7C0466CC10010BC
:100B7000F40E002070B5FFF7B1FF0400EFF310850D
:100B800072B61148FFF7CAFD00281AD10F4B1B6837
:100B9000A34212D00E4B1B68A3420ED00D4B1E6811
:100BA000FFF79CFF9023C25831000B4805F092F8E4
:100BB00021002C310448FFF77FFD01232371FFF74B
:100BC00019FF85F3108870BD1C0F0020F40E002063
:100BD000F80E00205411002088C1001010B5FFF756
:100BE0007DFF0D4B1B68984213D00C4B1B6898423D
:100BF0000FD02430FFF768FDFFF770FF411D084854
:100C000005F068F8FFF76AFF03230371FFF7F2FEB0
:100C100001E0FFF7AFFF10BDF80E0020F40E00203A
:100C2000B8C1001070B5FFF759FF104B1B68834225
:100C300011D00F49012200230C684D6812196B4135
:100C40000A604B600B4A136801331360902283588B
:100C5000013B835070BD0849012200230C684D6898
:100C600012196B410A604B60ECE7C046F40E00209D
:100C7000E00D002054110020D80D002010B5FFF722
:100C80002DFF044B1B68834200D010BDFFF754FFBB
:100C9000FBE7C046F40E0020F8B5CE46474680B5C7
:100CA0000500894690461F009821012004F004FEAB
:100CB000041E29D02900FFF7B5FDFFF781FD0600CE
:100CC00020609023E7503A002900114805F002F80F
:100CD0000C212000FFF77CFD002303604B4643609E
:100CE000434683602000FFF723FE0A4B9D4206D057
:100CF000FFF7C4FF3000C0BCB946B046F8BD022EB5
:100D0000F6D1054B1C60F3E701267642F2E7C046B8
:100D1000D0C10010FCC10010F40E002010B5034B30
:100D2000002203490348FFF7B7FF10BDE7030000A7
:100D3000550B0010FCC1001070B50500FFF7CEFE8A
:100D40000400FFF71DFD4019C317A063E3632100F2
:100D50002C310348FFF7B0FCFFF7EEFE70BDC04634
:100D6000FC0E002010B50400FFF70AFD002C0ADD80
:100D7000FFF7B4FE411D2200054804F0ABFF200040
:100D8000FFF7DAFF10BD034804F074FFFAE7C0462E
:100D900004C2001024C2001030B583B0051E07D075
:100DA000114804F097FF2800FFF7DCFB040010E077
:100DB0000E4B00930E4B0F4A0F49104800F064F899
:100DC000210027390E4804F085FF2000FFF7E2FBE1
:100DD00004002800FFF712FC8442F1D10A2004F03D
:100DE000E3FE03B030BDC04648C2001014BF00107F
:100DF000CCBE001070C200108602000004C00010BB
:100E000050C2001010B50B48FFF7ACFB040008E01F
:100E100021001F39084804F05DFF2000FFF7BAFBEE
:100E200004000448FFF7EAFB8442F1D10A2004F0F1
:100E3000BBFE10BD540E002050C2001010B5024879
:100E4000FFF7AAFF10BDC0461C0F002010B50248D6
:100E5000FFF7A2FF10BDC046FC0E002010B50A200F
:100E600004F0A2FE064804F035FFFFF7E7FF05484F
:100E700004F030FFFFF7EAFF0A2004F095FE10BDF2
:100E80005CC2001064C2001008B430B582B0130018
:100E900005AC20CC0A000100064804F01BFF0194B9
:100EA0002100280004F0F6FE0A2004F07DFE012057
:100EB00002F06AFBE0C2001010B5040008001B1C21
:100EC000E3652B1C6366331CA3663B1CE3666B4621
:100ED0008422A350CB6D1B1C4B6E1D1C8B6E1E1CE5
:100EE000CB6E1F1CFFF7F2FD200010BD10B50023D4
:100EF00008E05C1CDB00054A9A582100044804F015
:100F0000E9FE23000E2BF4D910BDC046B0C400107A
:100F100008C300100F207047014B01221A60704770
:100F20004C110020C000014BC0587047B0C40010E5
:100F30000FB430B583B006AC20CC094B1968094812
:100F400004F0C8FE01942100280004F0A3FE0A204A
:100F500004F02AFE03B030BC08BC04B01847C046F9
:100F60004811002018C3001030B583B005000F4CA5
:100F70000E4B78339C4211D22168280005F006FD03
:100F8000002801D00834F3E7094B1D602900094807
:100F9000FFF7CEFF6368984703B030BD0095064B5E
:100FA000064A40210648FFF76FFFC046B0C4001054
:100FB0004811002020C3001034C30010A4C4001046
:100FC00048C3001010B50248FFF7B2FF10BDC0467D
:100FD00028C5001010B582B0D0231B0680229204D1
:100FE0005A61FA20800001F039FC00210020FFF74F
:100FF000A1F90E4B1A6800929A8869468A809B79FB
:101000008B7100240BE022000949684603F006FCBE
:101010000A23002200216846FFF73EFE0134042C1B
:10102000F1DDFFF71BFF02B010BDC04650C5001038
:1010300044C5001010B582B0D0231B068022920454
:101040005A61FA20800001F009FC05210120FFF718
:1010500071F90E4B1A6800929A8869468A809B79CA
:101060008B7100240BE022000949684603F0D6FB8F
:101070000A23002200216846FFF70EFE0134042CEB
:10108000F1DDFFF7EBFE02B010BDC04650C5001009
:1010900044C5001010B582B0D0231B0680229204F4
:1010A0005A61FA20800001F0D9FB01210120FFF7ED
:1010B00041F90E4B1A6800929A8869468A809B799A
:1010C0008B7100240BE022000949684603F0A6FB5F
:1010D0000A23002200216846FFF7DEFD0134042CBC
:1010E000F1DDFFF7BBFE02B010BDC04650C50010D9
:1010F00044C5001030B583B0D0231B068022920473
:101100005A61FA20800001F0A9FB00210020FFF7BE
:1011100011F9114B1A6800929A8869468A809B7966
:101120008B71002411E005F03DFA192103F0CEFB8C
:101130004D1D22000949684603F070FB2B00002278
:1011400000216846FFF7A8FD0134042CEBDDFFF712
:1011500085FE03B030BDC04650C5001044C5001028
:1011600030B583B0D0231B06802292045A61FA2046
:10117000800001F073FB05210120FFF7DBF8114B24
:101180001A6800929A8869468A809B798B7100243C
:1011900011E005F007FA192103F098FB4D1D22001C
:1011A0000949684603F03AFB2B00002200216846FB
:1011B000FFF772FD0134042CEBDDFFF74FFE03B0A7
:1011C00030BDC04650C5001044C5001070B50E4C6F
:1011D00021680E4804F07EFD0D4D22680D4928005F
:1011E00003F01CFB0A23002200212800FFF754FD16
:1011F000FFF734FE236801332360074804F03AFD0B
:101200000648002170BDC046940E002058C500104D
:101210004002002044C500109CC5001014B4960084
:1012200030B585B0D0231B06802292045A61FA2083
:10123000800001F013FB04210020FFF77BF800245D
:1012400010E01F4D22001F49280003F0E7FA1E4A54
:101250001368013313600A23002200212800FFF7DE
:101260001BFD0134022CECDD01F0BCF8040001F0A0
:10127000A9FB02000B1E13DB1448002112184B417E
:10128000002B13DB002B15DB00210291019110498B
:101290000091200001F0BCF8FFF7E0FD05B030BD83
:1012A0000C4B0D4A3F210D4802F072F901225242C7
:1012B0000B4BE7E7074B084A3F21084802F068F963
:1012C0004002002044C50010940E002020B2960079
:1012D000CD110010C4C5001028C60010E0C50010D4
:1012E000FFFFFF7F70B50E4C21680E4804F0F2FC42
:1012F0000D4D22680D49280003F090FA0A230022C0
:1013000000212800FFF7C8FCFFF7A8FD2368013380
:101310002360074804F0AEFC0648002170BDC046BB
:10132000980E002058C500104802002044C5001047
:101330009CC5001014B4960030B585B0D0231B06B0
:10134000802292045A61FA20800001F087FA042179
:101350000120FEF7EFFF002410E01F4D22001F497F
:10136000280003F05BFA1E4A1368013313600A2356
:10137000002200212800FFF78FFC0134022CECDD55
:1013800001F030F8040001F01DFB02000B1E13DB1E
:101390001448002112184B41002B13DB002B15DBE6
:1013A00000210291019110490091200001F030F8D4
:1013B000FFF754FD05B030BD0C4B0D4A3F210D48E1
:1013C00002F0E6F8012252420B4BE7E7074B084ACE
:1013D0003F21084802F0DCF84802002044C5001014
:1013E000980E002020B29600E5120010C4C500102F
:1013F00040C60010E0C50010FFFFFF7F10B582B0AF
:10140000D0231B06802292045A61FA20800001F04A
:1014100025FA05210020FEF78DFF6846084B0200E3
:1014200012CB12C20F2300220021FFF735FCFFF779
:1014300015FD1920FFF796FCFFF710FD02B010BD57
:1014400058C6001010B582B0D0231B06802292042B
:101450005A61FA20800001F001FA05210020FEF710
:1014600069FF104B1A6800929A8869468A809B79B6
:101470008B71002410E022000B49684603F0CEF97E
:10148000013463001B19002200216846FFF704FCA9
:10149000A0000019FFF766FC042CECDDFFF7DEFC72
:1014A00002B010BD50C5001044C5001010B582B088
:1014B000D0231B06802292045A61FA20800001F09A
:1014C000CDF904210120FEF735FF104B1A68009278
:1014D0009A8869468A809B798B71002410E02200EB
:1014E0000B49684603F09AF9013463001B19002286
:1014F00000216846FFF7D0FBA0000019FFF732FC7F
:10150000042CECDDFFF7AAFC02B010BD50C50010A2
:1015100044C5001010B582B0D0231B06802292046F
:101520005A61FA20800001F099F905210020FEF7A8
:1015300001FF6846094B020012CB12C20F230022A2
:101540000021FFF7A9FBFFF789FC0A204042FFF7C3
:1015500009FCFFF783FC02B010BDC04658C600105E
:1015600010B5064B1968064804F0B4FBFFF7D4FC2D
:10157000044804F07FFB0020002110BD9C0E0020D9
:1015800060C600109CC5001030B585B0D0231B0686
:10159000802292045A61FA20800001F05FF9042150
:1015A0000020FEF7C7FE002410E01F4D22001F4957
:1015B000280003F033F91E4A136801331360052332
:1015C000002200212800FFF767FB0134042CECDD2A
:1015D00000F008FF040001F0F5F902000B1E13DB18
:1015E0001448002112184B41002B13DB002B15DB94
:1015F00000210291019110490091200000F008FFA4
:10160000FFF72CFC05B030BD0C4B0D4A3F210D48B7
:1016100001F0BEFF012252420B4BE7E7074B084A9D
:101620003F21084801F0B4FF5002002044C50010DB
:101630009C0E002000127A0061150010C4C5001035
:10164000A0C60010E0C50010FFFFFF7F10B5064BDD
:101650001968064804F03EFBFFF75EFC044804F0FE
:1016600009FB0020002110BDA00E002060C6001064
:101670009CC5001030B585B0D0231B068022920493
:101680005A61FA20800001F0E9F806210120FEF7F6
:1016900051FE002410E01F4D22001F49280003F0D6
:1016A000BDF81E4A1368013313600F230022002186
:1016B0002800FFF7F1FA0134042CECDD00F092FE73
:1016C000040001F07FF902000B1E13DB1448002117
:1016D00012184B41002B13DB002B15DB002102916C
:1016E000019110490091200000F092FEFFF7B6FB37
:1016F00005B030BD0C4B0D4A3F210D4801F048FFAD
:10170000012252420B4BE7E7074B084A3F210848AA
:1017100001F03EFF5802002044C50010A00E00203A
:1017200000127A004D160010C4C50010B8C6001093
:10173000E0C50010FFFFFF7F10B582B0D0231B066D
:10174000802292045A61FA20800001F087F80E4B43
:101750001A6800929A8869468A809B798B71002466
:101760000BE022000949684603F058F80F230022D5
:1017700000216846FFF790FA0134042CF1DDFFF7F1
:101780006DFB02B010BDC04650C5001044C500102E
:1017900010B58300084A944663441C6840226240A6
:1017A000C02414408022520113431C60C000034B2C
:1017B0009C466044416010BD04C0014000400140AF
:1017C00010B501238340D022120693629361052154
:1017D000FFF7DEFF10BD0000034B1B68022018401E
:1017E000431E9841C0B2704700C00640EFF310801E
:1017F00072B6034B1B68002BFBD0BFF35F8F7047A3
:101800002C0100D0BFF35F8F024B00221A6080F3DF
:10181000108870472C0100D0F8B506000C001500A8
:10182000FFF7E4FFE308F718F15C072222400123E9
:1018300093400B4205D1DBB20B433B70FFF7E2FF55
:10184000F8BD2100280001F03DFF0000002307E063
:10185000054A9A189200BFF35F8F0021116001338F
:101860001F2BF5D97047C04640000034054A107858
:10187000431CDBB21370172B02D9130010221A700D
:101880007047C0465F020020074B9B681030800005
:101890001950BFF35F8FBFF35F8F044B00211960B6
:1018A00082F310887047C04600ED00E0240100D0AC
:1018B00010B5091A081F0A4B9C466144094A914217
:1018C00008D8C30706D440104005400D064B184306
:1018D00080B210BD054B064AA321064801F058FE10
:1018E000FC070000FE0F000000E0FFFFD0C6001064
:1018F00024C9001000C7001010B5091A04394C089B
:10190000090B08D14905490D064A11430180064BD0
:101910002343438010BD054B054AAB21054801F028
:1019200037FEC04600F0FFFF00F8FFFF40C7001081
:10193000F8C8001000C7001001238340034A106854
:101940001840431E9841C0B27047C04600E100E015
:10195000002904D0034B1860034B18607047034BF9
:101960001860FBE780E200E000E100E080E100E0D9
:1019700010B5012383401800FFF7EAFF10BD0000F7
:10198000024B9B6810308000C058704700ED00E0AB
:1019900070B504000D00EFF3108672B60C4B1B6897
:1019A000002BFBD0BFF35F8F2000FFF7E9FF094B4F
:1019B000984201D0A84205D1320029002000FFF74B
:1019C00063FF70BD044B054A8621054801F0E0FD28
:1019D000240100D0CD01001050C7001040C90010F4
:1019E00000C70010F0B5CE46474680B583B006006C
:1019F0000D00EFF3108872B6564B1B68002BFBD01E
:101A0000BFF35F8F544B9A6834001034A300D7584B
:101A1000524B9F4207D0AF4200D198E00197504B04
:101A2000FB1A2F2B09D9424639003000FFF72CFF53
:101A300003B0C0BCB946B046F0BD3000FFF77CFF34
:101A4000814600213000FFF793FFBFF35F8FEFF374
:101A50000581002901D08C4211D10123019C9C43B6
:101A60000022A368AB4212D00622A256002A0DDB48
:101A700053009B189B002200394CE418F1E73621F3
:101A8000384B394AFF31394801F082FD2200AB4220
:101A900056D106256557002D38DB6B005B199A007F
:101AA0002F4B9B189A68A260DA79E27106229A5647
:101AB000A2719B795BB2002B0FDA2D48A0806B00DE
:101AC0005B199B00264AD3182A4A11789971157020
:101AD00049463000FFF74CFFA5E7201D6B005B195E
:101AE0009B001F4A9B181A1D9B88D90A1C2907D1E5
:101AF0005B055B15023359005118FFF7D9FEDDE78E
:101B00001D4B1E4AB121194801F042FD002912D196
:101B1000002A0ED0FF239371194B9380154A137836
:101B2000A371184B0E49641A644163431B0D137073
:101B3000CEE70A4FF2E7201D1349FFF7DDFEC7E7A6
:101B40006A21124B084AFF31084801F021FD034F7A
:101B500069E7C046240100D000ED00E0CD0100108F
:101B60006002002064C8001010C9001000C70010F7
:101B700001BD0000651100204CC8001030C90010E4
:101B800001BDFFFFAAAA00009A02002098C8001019
:101B900070B5012101432E4BCB1A2F2B28D8EFF320
:101BA0000583002B2BD0EFF3108C72B6294A1268F4
:101BB000002AFBD0BFF35F8F274A0400244D641B2B
:101BC00064416243120D54B2244A92689B00D25879
:101BD0008A421BD00022032A32D853009B189B0054
:101BE0001B49CB189B795BB2A3421FD00132F2E7AD
:101BF000C7211B4B1B4A49001B4801F0C9FC92211D
:101C00001A4B184AFF31184801F0C2FC134A926877
:101C10001749D150174B1A7882711C70BFF35F8F30
:101C20000C4B00221A608CF3108870BD0D0053001D
:101C3000991889006918FF268E710F4A8A80E9E792
:101C4000D1210E4B074A4900074801F0A1FCC046CC
:101C500060020020240100D0AAAA000000ED00E0EC
:101C6000A0C80010DCC8001000C70010C8C80010D1
:101C7000CD0100106511002001BDFFFFD4C8001088
:101C80000022044B02E0044902C30132072AFAD9B8
:101C90007047C04600E400E080808080024B9C4694
:101CA00061448900016070474000003410B50400B1
:101CB000FFF7DCFD01002000FFF7F0FFFF23237199
:101CC000BFF35F8F10BD10B50400FFF7CFFD01001B
:101CD0002000FFF7E3FFFF23237100236371BFF3AD
:101CE0005F8F10BD10B50C00CB68834207D1080090
:101CF0000B699847002809D02068616810BD5221FF
:101D0000054B064AFF31064801F042FC0023E36020
:101D100000200021F2E7C04610CA001074CC001069
:101D200024CA001070B505000C00080000F04AFF3E
:101D30000949200000F08AFEFFF798FD074B9C46FA
:101D40006044800068602C75D0231B061B786B757F
:101D5000A400034BE55070BD692000104000003422
:101D60000C0F00200A4B1A68EFF3108172B613684B
:101D7000002BFCD0BFF35F8F054B1B68BFF35F8F59
:101D800000221A6081F3108840BF002000217047B4
:101D90003411002010B5002922D003681B7B994222
:101DA0001ED8174B9C466144090183689C466144D8
:101DB0000C684968002A19D003681B7B9A4215D821
:101DC00083680F488446624412019A181068536869
:101DD000020001208B4201D80ED00020C0B210BDFD
:101DE000084B094A3C21094801F0D2FB054B064A41
:101DF0003C21064801F0CCFBA242EFD8EDE7C046FB
:101E0000FFFFFF0F5CCA0010DCCC001024CA0010DA
:101E100010B500291ED0037B99421BD84B005B18DC
:101E2000033B0468A4466344002919D0002A1DD04E
:101E3000914221D0002A25D0047BA24222D80468F6
:101E400050008018033820188170197800291FD19C
:101E50001A7010BD104B114A6821114801F098FB0F
:101E6000104B114A6F310E4801F092FB0F4B0E4A96
:101E700070210B4801F08CFB0D4B0B4A7121084877
:101E800001F086FB044B054A6821054801F080FB00
:101E900041701A70DDE7C04680CA001048CD0010BE
:101EA0009CCA0010E8CA001024CD0010F4CA00102B
:101EB00000CB001070B506000D001400002914D0EE
:101EC000002A14D0806873689847002806D0220042
:101ED00029003000FFF79CFF280007E02A002100BE
:101EE0003000FFF795FF200000E0100070BD0800F3
:101EF000FCE70000F0B583B00500009201930AAB47
:101F00001C780BAB1F78002C26D003685A7B9442B8
:101F100007D10123002B19D1002C3BD1200003B0A5
:101F2000F0BD002C0CD01A7B944209D81A686300CB
:101F30001B19033BD3189B78002BEBD00123E9E757
:101F40003E4B3F4A68213F4801F022FB3E4B3F4A4F
:101F500067213F4801F01CFB03689C7B002CDBD011
:101F600012D01A7B94420FD862001219033A1968F2
:101F70008C46624451789973002900D1D9730023AB
:101F8000937053701370C7E72C4B2D4A68212D486E
:101F900001F0FEFA002C3AD02B681B7B9C4236D80D
:101FA0002C4BE3181B01AA6894466344009A1A60FC
:101FB000019A5A60089A9A60099ADA602E68002C91
:101FC0002BD030D0337B9C422DD863001B19033BB0
:101FD00032689446634400229A705A701A70717B7A
:101FE00022003000FFF766FF7073844200D095E74F
:101FF000287D009A019B00F071FD061E01D0002F84
:1020000017D00C9B002B00D188E71E7086E7124B7F
:10201000124A3C210E4801F0BBFA114B114AA5218E
:10202000084801F0B5FA054B054A6821054801F05A
:10203000AFFA2868210000F089FFE2E780CA0010AB
:1020400048CD00109CCA001018CB001054CD0010D1
:1020500024CA0010FFFFFF0F5CCA0010DCCC001088
:1020600020CA001038CD0010F0B5DE4657464E4667
:102070004546E0B58BB00990002308938200B54B2C
:10208000D658370052E0B44BB44A3F21B44801F06F
:102090007FFAB44BB44A3C21B44801F079FA0029E4
:1020A00001D1002869D10021404600F045FFA0423F
:1020B00019D12A686B6806920793AB689846EB685B
:1020C0009A464346002B14D0002C18D03B681B7B4B
:1020D0009C4214D8631EFA68D35C08931B02184311
:1020E0003861002015E0A24BA24A8E219F4801F0E2
:1020F0004FFAA14B9F4A92219C4801F049FA994B13
:102100009E4A4121994801F043FA00239A46984695
:1021100000207B68BFF35F8F00221A6086F310886F
:102120004346002B32D1002800D10CE100F04AFCDC
:1021300002000B1EA7DB00200021069007917868A3
:10214000EFF3108672B601680029FCD0BFF35F8FF1
:10215000396888464C7B002CD7D09AD0097B8C42BA
:1021600097D8874965182D01B9688C466544286859
:102170006968801A9941002991DD2A686B6809987D
:1021800000F0ACFC00239A469846C2E7089B1B026D
:102190002343994651461800C04705000E007A684F
:1021A000EFF3108B72B6136859424B41D9B2002B32
:1021B000F9D1BFF35F8F002E1EDB002E46DD3B6999
:1021C000002B47D04B456DD100F0FCFB02000B1EED
:1021D0006EDB52197341002B70DB002B72DB002188
:1021E00004910131039102945146019141460091BD
:1021F0003800FFF77FFE4CE03B69002BDDD04B45FC
:1022000014D1069A079B521BB341002B14DB002B01
:1022100016DB002104910131039102945146019192
:10222000414600913800FFF765FE32E0554B514AB8
:10223000A1214E4801F0ACF901225242524BE6E78F
:10224000454B464A3F21464801F0A2F9002E01D1F4
:10225000002DB4D13B68002C50D05A7B944237D12A
:10226000012100294AD1DA7B002A4DD19A7B002A2C
:1022700003D1DA7B002A5AD19C73DC73002C5CD02A
:102280003B681B7B9C4258D8FA68013C135D0133C4
:10229000135500233B617A68BFF35F8F13608BF3A4
:1022A000108843E7374B334AA421304801F070F9D6
:1022B000294B2A4A3F212A4801F06AF90122524259
:1022C000314B8AE7244B254A3F21254801F060F92C
:1022D000002C0DD01A7B94420AD862001219033ADE
:1022E0001868844662449278002ABAD00121B8E77F
:1022F000264B274A6821274801F04AF9264B274AEE
:10230000F621244801F044F9002A0AD0197B8A42B8
:1023100007D851008A18033A19688C4662445470F1
:10232000A4E71A4B1A4A68211A4801F031F91C4BEC
:102330001A4AFB21174801F02BF90A4B0F4A412199
:102340000A4801F025F90BB0F0BCBB46B246A946DD
:10235000A046F0BD0C0F0020C4C50010A8CC001092
:10236000E0C500105CCA0010DCCC001024CA0010CC
:1023700040CB0010C0CC001058CB001000CD001096
:10238000FFFFFF0F64CB0010FFFFFF7F80CA00102C
:1023900048CD00109CCA0010A0CB001014CD001036
:1023A000C4CB001010B50C4B5B68002B04D00A2185
:1023B0000A48FFF773FC10BD074C2300084A1021A0
:1023C000206800F0C9FC032000F0F0FA032120008F
:1023D000FFF7A8FCEBE7C046A8020020341100205C
:1023E000951D001010B5064B5B68002B01D004480A
:1023F00010BD044B044A5E21044801F0C9F8C046F0
:10240000A8020020D8CB0010E8CC001024CA00108D
:10241000F0B5DE4657464E464546E0B58BB08046A1
:1024200016001F00149B9A46159B994616AB1B7805
:102430009B461F2302AA9446634400221A702BE095
:10244000002809D042461268127B904204D8421EEE
:102450004146C9688A5C41E0404B414A41214148BC
:1024600001F096F807984CE0361BAF41002F07DBD0
:10247000002F11DA3C4B3D4A3F213D4801F088F8DE
:10248000012676423B4FF3E7374B384A3F21384825
:1024900001F07EF8002F4FDB43465A68EFF31084BB
:1024A00072B6136859424B41D9B20791002BF8D14B
:1024B000BFF35F8F1F3302AA944663440493002343
:1024C000039302934B4601935346009332003B0023
:1024D0004046FFF70FFD031EB2D102004146496896
:1024E000BFF35F8F00250D6084F31088002B29D087
:1024F0001F2302A98C4663441B78002BB2D1120221
:102500001043002B20D05B46002B1DD04946D047FE
:1025100004000D0003000B431DD00029A4DB00F0D4
:1025200051FA06000F1EAFDB36196F41002FB1DAEA
:10253000012676420F4FADE70B4B0C4A3F210C486A
:1025400001F026F8012040420BB0F0BCBB46B24679
:10255000A946A046F0BD0798F6E7C0465CCA001041
:1025600000CD001024CA0010C4C50010A8CC001073
:10257000E0C50010FFFFFF7FF8B50400002900D17F
:1025800062E04268EFF3108572B613685842434127
:10259000D8B2002BF9D1BFF35F8FCBB22268567B44
:1025A000B3421BD10120002848D0206988422BD09B
:1025B000090AC9B2002B2ED02068007B83422AD89A
:1025C000581EE668305C88422BD000206368BFF359
:1025D0005F8F00221A6085F31088F8BD002B0DD0A4
:1025E000167BB3420AD85E00F618033E1768BC4655
:1025F0006644B678002ED6D00120D4E7134B144A97
:102600006821144800F0C4FF2C21134B134AFF31FA
:10261000134800F0BDFF134B134A4121104800F04E
:10262000B7FF1900100000F091FC0028CED19921CD
:102630000E4B0A4A49000A4800F0AAFF23698B4260
:10264000C4D100232361C1E70020C6E780CA00107F
:1026500048CD00109CCA0010FCCB001090CC00109C
:1026600024CA00105CCA001000CD001020CC00105D
:10267000F0B585B00700100019000C9E13000B4345
:1026800001D101200021B7600A9B33613060716085
:102690000B9B7361CA1713005040040051400D009A
:1026A000A41A9D4100F08EF902000B1E12DB1219D4
:1026B0006B41002B14DB002B16DB012102910196EC
:1026C0000C4900913800FFF7A3FEF060C043C00F33
:1026D00005B0F0BD084B094A3F21094800F058FFFA
:1026E00001225242074BE6E7034B044A3F210448CC
:1026F00000F04EFFE51C0010C4C50010A8CC00106F
:10270000E0C50010FFFFFF7FF0B587B006000F00A7
:10271000EFF30583002B1FD106246442E517A419AB
:102720007D418D4202D803D1844201D90024002585
:10273000002D14DB0494059500F044F902000B1EF3
:1027400013DBA41A9D41002D17DC14D03000390092
:1027500000F044F907B0F0BD234800F0B3FF234B6D
:10276000234A3F21234800F013FF204B204A3F21FA
:10277000204800F00DFF002CE8D0FFF733FE0023C7
:10278000029301931C4B0093049A059BFFF740FEB4
:10279000002818DADAE7002300E00023002BD5D167
:1027A000164B1A68EFF3108172B61368002BFCD039
:1027B000BFF35F8F114B1B68BFF35F8F00221A605E
:1027C00081F3108820BF0499059A0D4B5B6A9A42E9
:1027D000E3D80B48806A884203D29A42DBD00123B7
:1027E000DCE70123DAE7C04624CC0010C4C50010A2
:1027F000A8CC0010E0C50010651D001034110020A9
:102800000040054070B504000D0000F0DBF8020048
:102810000B1E0ADB200029008018594100290ADB21
:1028200000290CDBFFF770FF70BD084B084A3F2101
:10283000084800F0ADFE012040420749F0E7034B95
:10284000034A3F21034800F0A3FEC046C4C5001060
:10285000A8CC0010E0C50010FFFFFF7F10B5FA22E2
:1028600092000023002102F063FFFFF7CBFF10BDB1
:1028700070B584B005000C00EFF30583002B1ED16A
:10288000FFF7B0FD002302930193224B00932A002F
:102890002300FFF7BDFD061E23DD20BFFFF7A2FDCD
:1028A0003100FFF769FE1C4B5B6A9C422DD81A4A27
:1028B000926AAA422CD29C4225D0012026E0164BD7
:1028C0005B6A994209D8144A926A824207D29942B5
:1028D00001D001201AE0002018E0002016E00120BD
:1028E00014E00D4B5B6A9C4209D80B4A926AAA42DB
:1028F00007D29C4201D0012008E0002006E0002021
:1029000004E0012002E0002000E0002004B070BDDF
:102910000120FBE7651D00100040054070B5EFF396
:1029200005801038EFF3108C72B61A4B1B68002B21
:10293000FBD0BFF35F8F01221300834016494B6326
:1029400016490B60164909780C00C440224214D085
:10295000114A546A8200134D5259944206D38200A0
:10296000114C125999430E4B197007E00A4A031D86
:102970009B0099589950002200E00022BFF35F8F1E
:10298000044B002119608CF31088002A00D0904776
:1029900070BDC046280100D0004005403C70054095
:1029A0006611002038110020440E002010B50100EF
:1029B000024A0348FEF730FF10BDC04678CD001034
:1029C00064110020044B5B6A034A906A1900536A41
:1029D0009942F9D17047C04600400540084B5B6AF8
:1029E00001E0074B5B6A8B42FBD301E0044B5B6A5F
:1029F0008B4203D1024B9B6A8342F7D37047C04698
:102A00000040054070B504000D00FFF7DBFF020039
:102A10000B0020002900801859418B4202D804D1B4
:102A2000824202D901204042C117002902DBFFF790
:102A3000D5FF70BD024B034A3F21034800F0A8FDBB
:102A4000C4C5001020CE0010E0C5001070B5040011
:102A50000D00EFF3108672B61B4B1B68002BFBD0EA
:102A6000BFF35F8F002D1CD02000FEF789FF174BAE
:102A700083420BD019002000FEF78AFF01212000BD
:102A8000FEF776FF0123A340114A1360A400114B07
:102A9000E550BFF35F8F0C4B00221A6086F310885D
:102AA00070BDA2000B4B0021D1500122A2400A4967
:102AB0000B7893430B7005492000FEF793FF00212C
:102AC0002000FEF755FFE4E7280100D01D29001083
:102AD00038600540440E002066110020F0B5DE4647
:102AE00000B584B00400150001921E000293FFF7A8
:102AF00069FF03958E4202D84ED185424CD9EFF33F
:102B0000108B72B6274B1B68002BFBD0BFF35F8F77
:102B1000254A17780125A540EBB23B431370234BA0
:102B20005D63221D92000199D150A20020490298B4
:102B300050501B6A2B4212D11C4B1B6C2B4208D0ED
:102B40000020BFF35F8F174B00221A608BF31088B1
:102B500023E0184B184AC521184800F019FDFFF76B
:102B600031FF8E4214D802D1039B834210D80E4B02
:102B70001B78BB420ED00D4B1D625D631F200440CD
:102B80000123A3400E4A1360074B1F701E38D8E77D
:102B90000020D6E70120D4E7012004B080BCBB466A
:102BA000F0BDC046280100D066110020004005405D
:102BB000381100209CCD001004CE0010C0CD0010B4
:102BC00080E200E0EFF3108C72B60B4B1B68002B19
:102BD000FBD0BFF35F8F01238340084A136208498B
:102BE0000A789A430A70BFF35F8F034B00221A6082
:102BF0008CF310887047C046280100D00040054083
:102C00006611002010B500291ED0037B99421BD805
:102C10004B005B18033B0468A4466344002919D0A9
:102C2000002A1DD0914221D0002A25D0047BA24247
:102C300022D8046850008018033820188170197851
:102C400000291FD11A7010BD104B114A682111487C
:102C500000F09EFC104B114A6F310E4800F098FCBA
:102C60000F4B0E4A70210B4800F092FC0D4B0B4AA3
:102C70007121084800F08CFC044B054A6821054886
:102C800000F086FC41701A70DDE7C04680CA001073
:102C900028CF00109CCA0010E8CA001014CF001002
:102CA000F4CA001000CB001070B506000D0014002F
:102CB000002914D0002A14D080687368984700282F
:102CC00006D0220029003000FFF79CFF280007E013
:102CD0002A0021003000FFF795FF200000E01000DF
:102CE00070BD0800FCE7000010B5002343730133FA
:102CF0008373037BC3730123027B9A4214D9002B95
:102D00000CD0027B934209D85A00D218033A0168CA
:102D10008C4662440133DBB25370EDE70B4B0C4A37
:102D200068210C4800F034FC002A09D0924207D8F0
:102D3000016853009A18033A8A180023537010BD93
:102D4000024B034A6821034800F022FC80CA0010AD
:102D500028CF00109CCA001010B501734260836038
:102D6000FFF7C2FF10BD000070B50400081E00D1BF
:102D700070BD002934D0237B994231D84B005B18B9
:102D8000033B2268944663445A78002AF0D02DD041
:102D9000237B9A422AD853009B18033B21688C4618
:102DA00063445D7800215970002825D0237B984228
:102DB00022D843001B18033B21688C466344002142
:102DC000597001002000FFF76FFF06002900200066
:102DD000FFF7CAFF020031002000FFF765FFC7E7D9
:102DE000084B094A6821094800F0D2FB054B064A06
:102DF0006821064800F0CCFB024B034A68210348D7
:102E000000F0C6FB80CA001028CF00109CCA00103A
:102E100070B505000C00160000292FD034D0037BBC
:102E2000994231D84B005B18033B026894466344D7
:102E30005A78002A2ED19A78002A31D11978FFF7D2
:102E400093FF0300002E0AD0EA7B002A2ED1AA7B32
:102E5000002A03D1EA7B002A3BD1AC73EC73002B30
:102E60003DD1002C4FD02B7B9C424CD82B6861006D
:102E70000C19033C1C190023637070BD254B264AB6
:102E80003821264800F084FB254B264A6821264835
:102E900000F07EFB254B204A3A21204800F078FBC9
:102EA000234B1D4A3B211D4800F072FB002A0AD02B
:102EB000297B8A4207D851008A18033A29688C4630
:102EC00062445470C3E7164B164A6821164800F056
:102ED0005FFB184B104A4221104800F059FB002BB1
:102EE0000BD02A7B934208D843001B18033B2A6867
:102EF0009446634400229A70B3E7094B094A68215B
:102F0000094800F045FB064B064A6821064800F0D8
:102F10003FFBC04638CE001000CF001040CE00105E
:102F200080CA001028CF00109CCA00107CCE001070
:102F3000A4CE0010C4CB001070B504000A00457B7D
:102F40002900FFF765FF6073280070BD70B50400AD
:102F5000002967D0437B8B420ED0002911D0037B20
:102F600099420ED84B005B18033B0268D018837857
:102F7000002B0CD1002056E00121FFF7DDFF0120DE
:102F800051E0294B294A6821294800F001FB002B18
:102F900020D0227B93421DD85A00D318033B2268CD
:102FA000D2182568EB5C8B421AD0002B1BD0227BF9
:102FB000934218D85A00D318033B2268D21853788A
:102FC0008B4216D0002BF0D11A4B1B4A6B211B48A9
:102FD00000F0DEFA144B154A6821154800F0D8FAC3
:102FE0004378137007E0104B104A6821104800F036
:102FF000CFFA43785370002383704370012220007E
:10300000FFF706FF0200617B814205D02000FFF739
:103010004BFE6073012006E0094B074A7121074807
:1030200000F0B6FA002070BD80CA001028CF001052
:103030009CCA0010D4C80010E8CE001040CE00108A
:10304000C8CE001070B5046BE30701D4200070BD3A
:1030500002003032C0239B0113430A4A1A60456ABA
:10306000826AAD01AD18AD02062000F0BDF9064937
:1030700001F054FC0100280001F050FC0021FFF792
:10308000C1FCE3E7010300004E0E000070B5040030
:103090000E001500FFF7D6FF22002C32E16A4E40E9
:1030A000354080235B0113431D60206370BD000029
:1030B00070B505000C00062000F096F9C000210054
:1030C00001F02CFCC60908D00E4B9E4216D87F2377
:1030D000184001303400460800E001246C62AE6202
:1030E000002200212800FFF7D1FF062000F07CF924
:1030F0008000A101891901F011FC70BD0026024C6D
:10310000ECE7C046FEFF0000FFFF000010B50539E8
:103110004901013AD2001143002B09D002220A438F
:10312000012B07D0002111436E22FFF7AFFF10BD26
:103130000022F4E70421F6E7002909D00A22064B11
:103140009C466044434258414000044BC252704781
:1031500080225200F3E7C0460080FCBF5C110020D3
:1031600070B505000C00062000F03EF9061E27D0C1
:10317000164B9D4226D08022D203154B1A60154B68
:103180001A60154B9B6811009943FAD10021280061
:10319000FFF7D2FF21002800FFF78AFF0600002377
:1031A000012208212800FFF7B1FF2A002C328023DA
:1031B0009B01134310221A60084B2B630323AB645B
:1031C000300070BD80221204D7E7C0460080034063
:1031D00000E0004000F0004000C00040010300009B
:1031E000F8B5DE4657464E464546E0B505000F00A9
:1031F00092460A9A934250D31A0E91461E020A9A98
:1032000000233000494601F0C7FB80466C0064197A
:10321000A400304B9C4664446368834200D26060E3
:103220002B1FDBB29B46012B3DD9C0239B012343BF
:10323000802212011A60AB00274A9958002907D052
:10324000506901F06BFB431C5800C0180338FDD2D5
:1032500053465A0123685A40E0231A4080235B01F9
:1032600023431A605A46012A28D980239B0123430D
:10327000802212011A6043466360424600233000F8
:10328000494601F089FBAD00134B58510120F0BCB9
:10329000BB46B246A946A046F8BD104B104A3321A2
:1032A000104800F075F9012FBFD1C0239B012343C3
:1032B00003221A60A368DB07FCD5C9E721687940BF
:1032C00003220A401A60A2680123BB401342FAD0CD
:1032D000CBE7C046008000406C0E002034CF0010C9
:1032E0008CCF001048CF001030B583B00C2000F018
:1032F00011F9FEF771FA00280DD0002304E09900BF
:103300002D4A2E4888500133092BF8D92A4B2C4AD4
:103310005A6203B030BD2B4B00229A6700F002F9CD
:10332000294B01221A60274B5B6C012BFBD1274BE9
:1033300003221A60234B9B6B012BFBD101330093BB
:103340000433234A0121234800F054F80523009355
:10335000214A0121214800F04DF8214B0093002221
:1033600002210420FFF73CFF1E4D00952B00002298
:1033700001210520FFF734FF104C009423000022A8
:1033800000210720FFF72CFF0094230000220021DA
:103390000820FFF725FF0A4B00932300002200219D
:1033A0000920FFF71DFF00952B00002200210620B9
:1033B000FFF716FFADE7C0466C0E0020006CDC0284
:1033C0001BB70000008000403CB0004030B000401F
:1033D000002F685900800240008C864700C00240E0
:1033E000001BB700405973078000014BC05870475D
:1033F0006C0E0020F0B5C64600B504000E001700A4
:103400001D00374801F08AFA8046364BFA18364BD1
:103410009A4239D80100380001F080FA0200103ACF
:1034200098235B009A4235D86B1E062B38D8069B32
:10343000013B062B34D83F09474537D32D04069B63
:103440001A0315432368002B36DB284B9C4244D0DB
:1034500080225201264B1A60264B1A60264B9B682D
:1034600011009943FAD12660A060231DC022920169
:103470001A43212313602368002BFCDAE56008233C
:10348000136080BCB846F0BD1C4B1D4A11211D487D
:1034900000F07EF81C4B1A4A19211A4800F078F8FF
:1034A0001A4B174A1C21174800F072F8184B144A9F
:1034B0002321144800F06CF822683F231340B342E4
:1034C000C3D1A3681B051B0D8342BED1E368EE2266
:1034D000D2021340AB42B8D1D3E780229201B9E7C0
:1034E000001BB70080E84BD380F8A93200C002402F
:1034F00000E0004000F0004000C000409CCF001001
:10350000C0D00010FCCF00103CD0001058D00010EC
:10351000A4D0001080239B000343014AD36270476C
:1035200000800540064BAA2212011A602F22DA60A1
:10353000044B054A1A60024B5B68002BFBDA7047AC
:10354000004002400060024000B0FA0000BEFDE70B
:1035500003000A4A1268002A08D0084A1068C318F3
:10356000074A9A4206D3054A13607047034A054941
:103570001160F2E701204042F7E7C046F00E00205C
:10358000000004206811002010B5FFF7DFFF0000E5
:1035900010B582B00C001900002A0CD0084B002A8C
:1035A0000BD00192009323000200064802F092FB28
:1035B0000120FFF7CBFF044BF1E7034AF1E7C046D8
:1035C000CCD00010DCD00010CCC1001070B52B4B5B
:1035D0002B4A1A602B4B2C4A1A602C4B9A682A4BA8
:1035E0009343FAD12A4C01E008CC9847294B9C42DE
:1035F000FAD3FFF779FE234B274A1A60234B9B68C7
:10360000DB43DB01FAD1254B40229A675A671A67E0
:10361000DA66234C09E0234B234A87212348FFF72E
:10362000B7FF2000FEF742FB0834214B9C4209D231
:103630002368002BF5D0012BEDD12000FEF743FBD2
:103640000834F2E71B4CA1681B4DC022280002F091
:1036500069F9A560EFF30583002B00D000BEFEF7EB
:10366000F5F8FEF70DFBFEF79DFE144C01E008CCCB
:103670009847134B9C42FAD370BDC04600E000400F
:10368000BFCDFBFE00F00040FE7F3C0000C00040CC
:10369000C00C0020D00C0020FFFFFF0100F0014013
:1036A000B80C00200CD1001080D100102CD10010DB
:1036B000C00C002000ED00E000000020D00C002035
:1036C000D40C00200FB400B583B0084802F0D2FA41
:1036D000049B002B07D005A90191180002F0DAFA2B
:1036E000034802F0C7FA0120FFF730FF70D1001045
:1036F000F8C100109A4200D288547047704710B544
:10370000002802D00B684968984710BD01000020CE
:1037100007E083001B185B00501C08601078C0187D
:1037200030380A681378303BDBB2092BF1D9704787
:10373000F0B5DE4657464E464546E0B583B0934663
:103740001F000C9B9A460D9C0E9B99460F9B9B0756
:1037500003D0B8460F00060022E00192A346884637
:103760004E46B9460700B44207D2551C4B46414667
:103770002020B84701342A00F5E73D004F465C465B
:10378000019B9B46B1464646B84637002E0007E0EF
:10379000013C551C5346185D43463900B0472A008A
:1037A000002CF5D135003E0047460F9B9B0707D400
:1037B000100003B0F0BCBB46B246A946A046F0BD1F
:1037C000B0464E46B9462F005D46531BB342EFD27A
:1037D000541C4B4641462020B8472200F5E7F0B57F
:1037E000CE46474680B585B0944698460C9D0D9CC4
:1037F0000EAB1B789946109A119B129EB7071CD4EA
:10380000002B0CD0F7070AD54F46002F02D10C37FA
:10381000374204D0013B02E030272F550134944257
:1038200001D21F2CF8D9F70707D59C4205D21F2CCF
:1038300003D830272F550134F5E7F70615D577055E
:1038400005D4002C03D0944224D09C4222D00F9A5D
:10385000102A2BD00F9A102A30D00F9A022A35D076
:103860001F2C02D830222A5501341F2C05D84A4675
:10387000002A31D02D222A55013403960293019457
:10388000009543466246FFF753FF05B0C0BCB946FA
:10389000B046F0BD621E012C06D00F9F102F01D044
:1038A0001400D4E7023CD2E71400D0E7B206D1D42A
:1038B0001F2CCFD878222A550134D1E7B206CCD5B7
:1038C0001F2CCAD858222A550134C9E71F2CC7D843
:1038D00060322A550134C3E7720703D52B222A55DB
:1038E0000134CAE73207C8D520222A550134C4E77B
:1038F000F0B5DE4657464E464546E0B593B08146A4
:103900008A46089209931CAB10CB1B789B461E9DE0
:10391000219B9846002C03D1102342469A4390469F
:103920008023DB0046461E4042461A4212D0002C3D
:1039300022D000260EE03033D9B2771C0AAB99555D
:103940002900200000F0EAFFAC4216D31F2F14D844
:103950003E0004002900200000F0E0FFCBB2092B5C
:10396000E9D94246920605D54121C918C9B20A399A
:10397000C9B2E2E76121F8E7270043460693209B9E
:1039800005931F9B049303955B46029301970AAB33
:103990000093099B089A51464846FFF720FF13B051
:1039A000F0BCBB46B246A946A046F0BDF0B5DE4627
:1039B00057464E464546E0B595B0089009910A92A3
:1039C0000B931E9E1F9C20AB1B789B46229B994607
:1039D000239D269B9A463300234303D1103352463E
:1039E0009A4392468023DB0057461F4052461A42B4
:1039F00019D0330023432DD0002714E03033DAB23E
:103A00007B1C98460CABDA554A462B00300021004F
:103A100000F0C2FFA5421FD819D043461F2B1BD868
:103A2000474606000C004A462B003000210000F0FB
:103A3000B3FFD3B2092BE1D95246920605D54122F4
:103A4000D218D2B20A3AD2B2DAE76122F8E7B14527
:103A5000E3D901E00023984653460693259B05933E
:103A6000249B04934B4603935B4602934346019386
:103A70000CAB00930B9B0A9A09990898FFF7AFFECD
:103A800015B0F0BCBB46B246A946A046F0BD00004A
:103A9000F0B5DE4657464E464546E0B591B0834602
:103AA0008A460C9298461A9C08941B9D0995220000
:103AB0002B002000290001F002FA002800D0E5E0E8
:103AC00001225242D74B2000290001F0F3F90028CF
:103AD00000D0DBE001225242D34B2000290001F04C
:103AE000D3F9002800D0D1E000220023089E300046
:103AF000099D290001F0C8F9002800D0DDE00898F0
:103B00000999069007918023DB001E9A1A400D92B6
:103B10001E9A1A4201D106231C93069807990400A5
:103B20000D000A000600024300D1D1E0080D400557
:103B3000400DBE4CA44660440A03120BBC4B134319
:103B40001F0001F0CFF9BB4ABB4B01F052F9BB4A51
:103B5000BB4B01F027F904000D000022B94B3000E7
:103B6000390001F016F9B84AB84B01F042F90200E9
:103B70000B002000290001F015F901F0CBF9814676
:103B800001F0B0F904000D00B14AB24B01F031F977
:103B90000022B14B01F006F901F0BCF90600AF4A72
:103BA000AF4B2000290001F024F904000D00300083
:103BB00001F098F9AB4AAC4B01F01BF902000B0085
:103BC0002000290001F0E5F804000D0002000B00C0
:103BD00001F00FF90A900B91A44BF31800261F0572
:103BE00022002B002000290001F0DCF80E900F913C
:103BF00022002B0000208021C90501F0CAF8040032
:103C00000D0000229A4B0A980B9901F0D4F800227B
:103C1000984B01F0C7F802000B000A980B9901F0CD
:103C2000CAF80022944B01F0BDF802000B000A987C
:103C30000B9901F0C0F802000B002000290001F0F0
:103C4000B1F802000B000E980F9901F0B4F80022B1
:103C5000774B01F0A7F832003B0001F0CAF80600EC
:103C60000F0004000D00069A079B01F023F90028BD
:103C700030D001235B429C46E14400227D4B300062
:103C8000390001F098F804000D0023E01E9B049316
:103C90001D9B03931C9B0293089A099B009201931E
:103CA00043460C9A5146584600F0FCF811B0F0BC5F
:103CB000BB46B246A946A046F0BD002300240693A9
:103CC0000794069680231B069C46654407951AE7D1
:103CD000002399464B466333C62B1ED804261E9BF1
:103CE0001B0526D52B0023430FD0644A644B06984E
:103CF000079901F0D7F8002879D00022614B069887
:103D0000079901F0C1F8002871D01C9B4B4506DDD6
:103D10004A46981A431E1C9303E00526DFE700235A
:103D20001C938023DB001E9A1A431E920026002358
:103D300099461D9B9E4264D29F1B02231E9A1A40E5
:103D40000A921E9A134202D0002E00D000274B4642
:103D5000002B07D022002B000698079901F02BF8C2
:103D600006900791002200230898099901F08CF829
:103D7000002848D1444B1E9A1340049303971C9B80
:103D80000293069B079C0093019443460C9A51466C
:103D9000584600F087F8002E00D187E71E9B9B064F
:103DA0003DD54525441C4346020051462800D847CE
:103DB0004B46DA179B18534005220592013E0496A4
:103DC000002203920A3202924A46D00F01900093D9
:103DD0004346220051465846FFF78AFD0A9B002BB6
:103DE00000D163E702005F460C9E1D9D54E01C9BC2
:103DF000002B9ED00D9B002B9BD01C9B013B1C934A
:103E000097E7002799E7069C079D2200290080205C
:103E10000006844661440B0006920793AAE76525D5
:103E2000C0E7C046FFFFEF7FFFFFEFFF01FCFFFF92
:103E30000000F03FFB799F501344D33FB3C8608B21
:103E4000288AC63F0000F83F61436F63A787D23FCF
:103E500071A379094F930A400000E03F1655B5BBA6
:103E6000B16B0240EF39FAFE422EE63FFF0300003D
:103E700000002C4000002440000018402D431CEBA3
:103E8000E2361A3F80842E41FFF7FFFF541C434661
:103E900051462020B8472200931BAB42F6D31000B6
:103EA00004E7C046F0B5DE4657464E464546E0B507
:103EB00095B00690079193469946209F1E9A1F9BA6
:103EC0001000190000F0FBFF002831D101225242FE
:103ED000BF4B1E981F9900F0D7FF002837D1012251
:103EE0005242BC4B1E981F9900F0E4FF00283DD1C0
:103EF0000022B94B1E981F9900F0DCFF002850D11A
:103F00000022B64B1E981F9900F0BEFF002848D132
:103F1000002200231E981F9900F0B6FF002850D100
:103F200000239846229B5B0500D4B6E0002458E0AD
:103F3000229B0393219B029303230193A84B00939D
:103F40004B465A4607990698FFF7F2FB0EE1229B73
:103F50000393219B029304230193A24B00934B46AE
:103F60005A4607990698FFF7E3FBFFE00423229ADD
:103F70001A4022990B4210D09B4B002A0FD00422EA
:103F80002299039121990291019200934B465A463E
:103F900007990698FFF7CCFBE8E0944BEDE7032286
:103FA000EEE7229B0493219B039302971E9B1F9C89
:103FB000009301944B465A4607990698FFF768FD0F
:103FC000D4E01E9A1F9B0020002100F0E2FE1E900C
:103FD0001F9101239846A5E70CAB30221A55013FEB
:103FE00001341F2C01D8092FF6D81E981F9900F014
:103FF00091FF050000F076FF02000B001E981F994C
:1040000000F0C7FEFA007A4B9B181A685B680A92A8
:104010000B9300F0EEFE0890099100F09FFF060060
:1040200000F05CFF02000B000898099900F0B1FE57
:104030000890099100226F4B00F03CFF00282ED021
:104040000136300000F04AFF02000B000A980B997D
:1040500000F020FF002801D001350026002F2CD1D0
:10406000280000F03FFF02000B001E981F9900F08F
:1040700090FE06000F0000225E4B00F005FF0028B6
:1040800046D100225B4B3000390000F013FF0028BE
:104090003ED1EB073CD501353AE0062746E7002242
:1040A000544B0898099900F0EFFE0028D6D1002E55
:1040B00001D0F307D2D50136D0E7AA461F2C11D87C
:1040C000013F0A21300000F029FC651C30310CABA7
:1040D00019550A21300000F021FC092E0ED90600E6
:1040E0002C00EBE755461F2C0CD87B1E002F09D067
:1040F0000CAA302111551F000134F4E72B0055465E
:104100001C00F0E71F2C03D80CAB2E221A550134EB
:104110001F2C10D80A21280000F0D8FB661C303173
:104120000CAB19550A21280000F0D0FB051E01D068
:104130003400EDE734000323229A1340012B1CD0F6
:104140001F2C06D84346002B32D00CAB2D221A551B
:104150000134229B0393219B029301940CAB0093A7
:104160004B465A4607990698FFF7E2FA15B0F0BC9D
:10417000BB46B246A946A046F0BD219B002B13D0FA
:104180004346002B02D10C3313420FD0219B013B3D
:104190002193190003E00CAB30221A5501348C42F4
:1041A000CED21F2CF7D9CBE72199F8E72199F6E772
:1041B000229B5B0704D50CAB2B221A550134C8E7B0
:1041C000229B1B07C5D50CAB20221A550134C0E732
:1041D000FFFFEFFFFFFFEF7F65CDCD4165CDCDC187
:1041E0009CD10010A0D1001094D1001090D10010EB
:1041F00088D300100000E03FF0B5DE4657464E463B
:104200004546E0B593B082468B469046119300290F
:1042100000D1EBE200275546119B1878002800D109
:10422000E7E2252809D07C1C43463A005946A847B6
:10423000119B013311932700EEE701331193002402
:10424000119A11780B00203BD8B2102803D88300B4
:10425000D048C3589F460B00303BDBB2092B2CD90A
:104260002A292FD000230A93119B1A782E2A39D09D
:1042700000239A46119A1378683BD9B2122976D84E
:104280008B00C549CB589F4601231C430132119234
:10429000D6E702231C4301321192D1E704231C43C9
:1042A00001321192CCE708231C4301321192C7E777
:1042B00010231C4301321192C2E711A8FFF726FA1E
:1042C0000A90D1E71C9B1A1D1C921868002804DB79
:1042D0000A90119B01331193C6E702231C4343420A
:1042E0000A93F6E78022D20014435A1C11925A789E
:1042F0001300303BDBB2092B04D92A2A07D0002354
:104300009A46B7E711A8FFF701FA8246B2E71C9B6D
:104310001A1D1C921868002804DB8246119B013389
:104320001193A7E70020F8E780235B002343511C8B
:10433000119152786C2A01D01C0018E0C0239B0018
:104340001C430131119112E080232343511C119130
:104350005278682A01D01C0009E0C0231C430131B7
:10436000119104E080235B001C4301321192119BE8
:1043700018780300253BDAB2532A00D92CE29300C7
:10438000864AD3589F4680239B001C4301321192DA
:10439000EDE780235B001C4301321192E7E77828A8
:1043A00009D0582838D06F2838D0622838D0102348
:1043B0009C430A2600E01026582833D0692803D0F1
:1043C000642801D00C229443630501D50122944353
:1043D00069282AD0642828D0A30500D59FE0E305EA
:1043E00000D5B8E0630600D4CAE01C9A111D1C91E8
:1043F0001168FF220A4005940A9B049353460393D5
:10440000029600230193009243463A005946280041
:10441000FFF76EFA070027E01026CDE70826CBE766
:104420000226C9E720221443C8E7A30520D4E305E8
:1044300050D4630666D51C9A111D1C911168FF2289
:104440000A40D317D118594005940A9B0493534648
:1044500003930296D20F0192009143463A005946C7
:104460002800FFF745FA0700119B01331193D3E6AB
:104470001C9BDA1D07218A43110008311C91116829
:1044800053689C46DB170C930D930C9A0D9B100000
:1044900048400E90624653400F930E980F990C9A25
:1044A0000D9B801A99410E900F9108940A9B0793D7
:1044B000534606930496002305936346DA0F02924F
:1044C0000090019143463A0059462800FFF76EFAE2
:1044D0000700C9E71C9A111D1C911268D317D11847
:1044E000594005940A9B0493534603930296D20FB6
:1044F0000192009143463A0059462800FFF7F8F927
:104500000700B1E7230605D51C9A111D1C91002355
:10451000D25E96E71C9A111D1C91126891E71C9BB4
:10452000DA1D07218A43110008311C9108940A9B67
:10453000079353460693049600230593029313684A
:1045400054680093019443463A0059462800FFF707
:104550002DFA070088E71C9A111D1C9105940A9BEF
:104560000493534603930296002301931368009328
:1045700043463A0059462800FFF7BAF9070073E7A7
:1045800023060DD51C9A111D1C9112681204120CE1
:1045900031E7C046A8D10010ECD1001038D200108D
:1045A0001C9A111D1C91126825E746281AD01C9BE5
:1045B0000733072293431A0008321C9204940A9A84
:1045C0000392524602925C681B6800930194434632
:1045D0003A0059462800FFF765FC0700119B01339C
:1045E000119319E620231C43E1E7672801D04728EF
:1045F00002D180231B011C43452801D0472801D14B
:1046000020231C431C9B0733072293431A000832C4
:104610001C9204940A9A0392524602925C681B68A8
:104620000093019443463A0059462800FFF730FAB8
:104630000700119B01331193EEE502231A0022407B
:10464000924623421FD001241C9B1A1D1C927A1CE7
:104650009146187843463A005946A8475346002BDE
:1046600016D1119B013311934F46D5E5561C434695
:1046700059462020B847230032005C1C9D42F5D8E3
:104680003D001700E0E701233A002F000A9DF4E700
:104690004A46A9460A9D06E0571C43465946202033
:1046A000C84734003A00661CA542F5D84D469146ED
:1046B000D7E71C9B1A1D1C921B6899465346002B7A
:1046C00000D1013B4E4601E0013613003278002A4A
:1046D00002D05A1E002BF7D14B46F21A10928023BB
:1046E000DB0026001E401C4203D0524501D9534630
:1046F000109302231A0022400B92234205D03A0065
:1047000037004C46A946554620E03A00109B5F46CC
:10471000B3462E0006E0551C434639002020B04722
:1047200023002A005C1C0A999942F4D835005E46A1
:10473000BB46109437004C46A946554606E01D007E
:104740000134561C43465946C84732002078002899
:1047500004D0002FF4D06B1E002DF0D117004D4671
:104760000B9B002B03D1119B0133119354E50A9F3E
:10477000109B06E0561C434659462020A8472300BC
:1047800032005C1C9F42F5D81700ECE721231C4344
:104790001C9B1A1D1C921B6800930594082304930C
:1047A00053460393102302930023019343463A0098
:1047B00059462800FFF79CF80700119B013311931D
:1047C0002AE57C1C43463A0059462520A847119B00
:1047D0000133119327001FE57C1C43463A005946DC
:1047E000A847119B01331193270015E50A4B9A4600
:1047F00010E5AA46474502D343465A1E00E03A0058
:10480000434659460020D047380013B0F0BCBB46A1
:10481000B246A946A046F0BDFD3600100EB410B554
:1048200085B0010007AC08CC0394012200945242E9
:104830000348FFF7E1FC05B010BC08BC03B0184703
:10484000F536001000B585B0029003910121009368
:1048500013004A4202A90248FFF7CEFC05B000BD92
:10486000FF36001001480421014B1847D0020020F8
:104870009548001010B5010018231B8814221088D9
:10488000984710BD10B5010018231B881622108808
:10489000984710BDF0B5C64600B507000E000025CC
:1048A0000123984600E00135B5420AD2AC003C191C
:1048B0002068FFF7DFFF20600028F4D1002398462E
:1048C000F1E7404680BCB846F0BD0000124A936F45
:1048D0009B0815D29066D166002905D0FFE7FFE757
:1048E000FFE7516F106F704704B580210906C217AA
:1048F0005140002800D0C84307F0EAF9002104BD68
:10490000F0B5146E556E576F166FFFF7E3FF146620
:10491000556657671667F0BD000000D0114A936FC7
:104920009B0813D210665166002905D0FFE7FFE708
:10493000FFE7516F106F704704B5002801D00020C9
:10494000C04307F0C5F9002104BDC046F0B5146EA0
:10495000556E576F166FFFF7E5FF1466556657677C
:104960001667F0BD000000D094464A4A926F920844
:10497000624601D228E0C046F0B5464E346E756EF0
:10498000776F366F00F020F89446424A14665566F9
:10499000576716676246F0BD94463E4A926F92088A
:1049A000624601D254E0C046F0B53A4E346E756EA0
:1049B000776F366F00F04CF89446364A14665566A9
:1049C000576716676246F0BD002B24DB11D0002923
:1049D0003EDA00B5C943404200D1013100F038F859
:1049E000C943404200D10131DB43524200D101337F
:1049F00000BD002AEBD1002801D1002905D00020FC
:104A0000C90FC90701D1C043410800B507F058F9E3
:104A10000022002300BD00B500290ADBDB4352421F
:104A200000D1013300F014F8C943404200D10131F4
:104A300000BDC943404200D10131DB43524200D1A5
:104A4000013300F005F8DB43524200D1013300BDD1
:104A5000002923D1002B18D1002A0CD0BC460D4FC1
:104A600038667A6600210023FFE7FFE7FFE77A6FE9
:104A7000386F67467047002801D00748010000B52D
:104A800007F01EF90022002300BD02000B000020E9
:104A900000217047000000D0FFFFFFFF002B00D077
:104AA000BFE0130C28D1002AE7D080B4114F39663B
:104AB0007A66FFE7FFE730B4040C7B6F396F1B04A5
:104AC00023433B667A66FFE7FFE7FFE7C04684B211
:104AD0007B6F3D6F1B0423433B667A66FFE7FFE76E
:104AE000C04600232C042D0C7A6F386F00196941E1
:104AF000B0BC7047000000D0F0B594460025140EFD
:104B000001D112020835140F01D112010435940F9E
:104B100001D192000235D40F01D152000135D40BDE
:104B20000134254F7C66254C3C660E0C93B2FFE7A2
:104B3000FFE7FFE73C6F6643360C7703BE467343DF
:104B4000DF0B5B04C01AB941130C7343DB18C91A9D
:104B5000CE086643360CB64493B273431F0F1B0155
:104B6000C01AB941130C73431F0B1B05C01AB9417E
:104B7000860D8F023E436643360C092D24DB520A14
:104B80007243801A7703460A6643360C16235B1B72
:104B9000DE40DF40BF1964466643821B7046043521
:104BA00006330100D940A840C01900D30131A24208
:104BB00006D20023F0BD0000000000D0FFFFFFFF81
:104BC000121B0130F3D3F1E709277F1BFE40644637
:104BD000A2B27243801A00D20139220C7243130C24
:104BE0001204821A99410B007046043513370100F4
:104BF000F940A840801900D30131002B02D1A24214
:104C00000AD2F0BD013000D30131121BFAD2013BB0
:104C1000F8D1A24200D2F0BD013000D30131121B05
:104C2000F7E7F0B51C0C00D080E00CB400251C0A9E
:104C300004D11B02160E3343120208351C0B04D19B
:104C40001B01160F3343120104359C0B04D19B004A
:104C5000960F334392000235DC0B02D192185B4170
:104C600001351C00971864410134464F7C66464C60
:104C70003C660E0CFFE7FFE7FFE7C0463C6F66436C
:104C8000360C7703BE4697B27743C01B00D201397A
:104C9000C01B00D201399FB27743C91BC91B170C37
:104CA00077437E04FF0B801BB941CE086643360C68
:104CB0000C2D33DBB644120B1F053A431B0B97B286
:104CC0007743C01B00D201399FB27743C91B170C31
:104CD00077433E043F0C801BB941860D8F023E4353
:104CE000664329277F1BFE400C3D7746AF40BF1926
:104CF00030BCA2B2ABB272437343801A9941220C0A
:104D00007243130C1204801A994102000B00013700
:104D1000001BA941F9D2781E0021F0BD0C277F1B92
:104D2000FE4077467F0BAF40FF19E0E700245D1C93
:104D300007D0144F7D663966FFE7FFE7FFE7FFE71F
:104D40003C6F95B29EB265436643401BB141150C62
:104D50001E0C6543664336042F0C3E432D04401B56
:104D6000B141994204D202000B0020000021F0BDA5
:104D700001D19042F7D3801A994101349942F2D37C
:104D8000F6E70000000000D0FFFFFFFF4840414071
:104D9000484018B41B4B5B68FC46019308BD04DF18
:104DA000FF50001018B4174B1B68FC46019308BD58
:104DB00000DF095100109446134A926F920809D2FD
:104DC000624618B40F4BDB68FC46019308BD0CDF4C
:104DD000C15300100C4AF0B5146E556E576F166F24
:104DE0006246FFF7EEFF084A146655665767166776
:104DF000F0BD18B4034B9B68FC46019308BD08DF67
:104E000065520010300F0020000000D0FFB5504068
:104E10004240504059404B40594000E0FFB5154FCB
:104E20004C00640D03D0BC4204D10C0314D8002004
:104E3000090D09055C00640D03D0BC4204D11C03BC
:104E40000AD800221B0D1B0501264B4009D44B40FC
:104E500003D58B4200D18242FFBD9942FCD19042E2
:104E6000FFBD0B43DB1803431343F5D0C943491877
:104E7000FFBD0000FF07000000B5FFF7CFFF01D026
:104E8000002000BD012000BD00B5FFF7C7FF804135
:104E900000BDC04600B5FFF7C1FF01D9002000BD2D
:104EA000012000BD00B5FFF7B1FF01D9002000BD12
:104EB000012000BD00B5FFF7A9FF804100BD012022
:104EC00040054A00121804D85A00121801D80020D0
:104ED0007047012070470020704700000021002823
:104EE00005D17047C1174840401AFAD0C90713B519
:104EF000064B1B6898470CBC441CA2401005120BC3
:104F00000349091B09051943114310BD3010002046
:104F10001F04000010B54C00620D8023D218DB0086
:104F2000D21A5B057E2A10DD9E3A13DACC170903EC
:104F3000490819435242D140640001341532202AF5
:104F400005DAD0400843604310BD002010BD08467C
:104F5000604310BDC80FC018013810BD18B4044B11
:104F60005B6AFC46019308BD24DF71550010000008
:104F7000300F002018B4044BDB6DFC46019308BDD4
:104F80005CDF7D5600100000300F0020C94211D3B5
:104F900000B549004908002200F018F8002904D49F
:104FA000002240428A41114600BD802109060020AE
:104FB00000BD000018B4044BDB6EFC46019308BD35
:104FC0006CDF7F5500100000300F002018B4044B38
:104FD0009B6FFC46019308BD78DF9B5500100000D5
:104FE000300F002018B4044BDB6FFC46019308BD62
:104FF0007CDF095600100000300F002070B513232D
:105000001C78012C14D0012C14DC022C02DC1F4A69
:105010001F4B9A641F48FFF72DFC1F4B186070BD93
:1050200099001A481A4A885001331F2BF8D9EAE729
:105030000023FAE71948FFF725FC05001848FFF799
:1050400021FC023803789B007F2B19DD8022290088
:105050000F4800F067FC022CD7D1124B1A88B523F9
:105060001B029A4209D1104B1A88104B9A4204D164
:105070000F4B1A880F4B9A42C7D00020FEF722FB35
:105080000D4B0E4A32210E48FEF782FAC550001031
:10509000300F00204C33000030100020534400003B
:1050A0005346000054380000D8380000494600003C
:1050B0009C38000059460000D8D3001078D4001066
:1050C0002CD4001007B56046002800D100BE01882E
:1050D0000A0A0230DF2AFAD1C9B2820804D3028850
:1050E00040880004104300E00068024A50500390DA
:1050F00007BD0000300F00200FB403BC0CBCF0B59E
:105100000124E407634000E0F0B50C0DCF0F661EEC
:105110003605891B640503D3C943404200D30131DE
:10512000640D03D0661CF60A07D0E41B00207F0044
:10513000791C89078912803C24031D0DDF0F6E1E28
:1051400036059B1B6D0503D3DB43524200D301336D
:105150006D0D03D06E1CF60A07D0ED1B00227F00F8
:105160007B1C9B079B12803D2D032F1B661B58D475
:10517000A446202E46DA20371400BC401D00BD4056
:10518000F24033412A4380185941CB0F05D0C9431F
:10519000C043002264425041514162464D0D28D126
:1051A0000D0D07D100281FD0241940414941013A73
:1051B0000D0DF9D0640006D3013000D30131002C6D
:1051C00001D140084000013A0BD4941CE40A04D1F8
:1051D00012051144DB071944F0BDD907204B1943D0
:1051E00000E0D9070020F0BD0029DDD1002CDBD183
:1051F000F0BD0132C6074008CD0728434908002EFC
:10520000E1D0D9E73C2E29DA203E40371400BC40DB
:1052100000D00124F24014431A00BB401C43D317B2
:10522000ACE7AC46202F08DA20360400B4400D006D
:10523000B540F84039412843A5E73C2F0CDA203F20
:1052400040360400B44000D00124F8400443080074
:10525000B1400C43C117EAE710001900002494E79D
:105260000000F07FF0B50C0D661E3605891BE60ABE
:105270006405640D02D0651CED0A04D000200121F4
:105280000905803C2403A4461C0D671E3F05DB1B5B
:10529000E70A6405640D02D0651CED0A04D0002203
:1052A00001231B05803C24037740644497B484B2F7
:1052B00096B27443070C7E43150C6F4380B268436B
:1052C000361802D3012000043F183004350C0019B1
:1052D0007D41844688B29AB250430C0C62431F0C45
:1052E0007C438EB27E43921902D301263604A41960
:1052F0001604170C3618674101BC81B29AB25143AB
:10530000040C62431B0C5C4380B25843121802D356
:105310000120000424181004130C401863412D18B8
:105320005E410020474106BC88B293B258430C0C42
:105330006343120C544389B251435B1802D30121D9
:105340000904641819041A0C091862416D185641B1
:105350000020474118BCF902720D1143F0026A0D9A
:105360001043ED020A0D03D16D1940414941013B43
:10537000124E9B1B7600B3420ED26D0007D3013054
:10538000002671416646354301D1400840001B05A7
:10539000C918E4072144F0BD0BDA013306D101300E
:1053A00004D101314F0D01D04908F2E7E107002097
:1053B000F0BD013631050020EBE70000FF030000DF
:1053C000F0B51C0D671E3F05DB1BE70A6405640D85
:1053D00002D0661CF60A04D0002201231B05803C83
:1053E0002403D0252D060026F6432E661E096E6680
:1053F000CE0FF619B44649004F0D02D07E1CF60AB6
:1054000003D000200021403F3F033E1BB600B444C0
:10541000013F7F05C91B49082E6F013676089C02A3
:10542000950D25437543ED137543AD1301356D108F
:10543000F603761B0CB4CC02450D2C43A2B2B3B2DA
:105440005A43270C7B43350C6F43A4B26C431B19A2
:1054500002D3012424043F191C041D0CA4187D410F
:1054600024196D41009A91B2ACB26143170C7C4390
:105470002B0C5F4392B25A43A41802D301221204A8
:10548000BF182204230C52187B41019C6C431B194A
:10549000520ED9010A434401A01A81B2B2B251435B
:1054A00003145A43360C734387B27743D617D21985
:1054B00000277E4136049B191704160C7F185E41A5
:1054C0007316ED18F301002680337541A90F06D13C
:1054D0006400690AE8055B0A184309D22FE0042238
:1054E000944480337541A90AA8059B0A184326D322
:1054F000404149412404009A019B0D005543641B1F
:105500004343E41A95B286B27543170C7E43030CED
:105510005F4392B25A43B61802D301221204BF1855
:105520003204330C52197B4152429C41002C02D46C
:105530000022013051414008CA071043490802B017
:105540006246D7079210084BD218084B9A4203D2F2
:1055500012058918C919F0BD0020002A01DC3900A4
:10556000F0BD01331905F5E7FD030000FE0700005B
:10557000002200B5203200F010F8080000BD002223
:1055800000B500F00CF8CA179A4200D100BDD8430C
:105590000121C907414000BD00220B150AD410B5F6
:1055A000944600F0A7F81414013400DA0021CB1758
:1055B000144C20470020002170476244343A0CD438
:1055C0000C2A07DA04009140904052422032D44025
:1055D000214310BDD843D94310BD203207D40C4617
:1055E0009440524220321141D040204310BD080067
:1055F000C917203203D452422032104110BD180086
:10560000190010BDBB5500104A00520D144BD21AA0
:1056100013DDFF2A1EDAD205CB0FDB071A43C300C6
:10562000400F0903490A084310435B0001D301D02E
:10563000013070474308FBD2704702D0C80FC00743
:1056400070470A0312130132F8D1420F072AF5D12D
:10565000012200E0FF22C80F00028018C005704739
:105660008003000000210A00002104E000210A005C
:10567000C11704E00022002306E0C0460022CB1739
:1056800058405940C01A994130B5184CA21A002907
:1056900003D1010010D00020203A4C1512D104D2C1
:1056A000013A001849414C0DFAD3114CA24204D2E0
:1056B00012058918DB07C91830BDD243520D0020EE
:1056C0000021F5E703D4013A00184941FBD50B321C
:1056D0004405C00A4D052843C90A640003D00024CC
:1056E00060416141E1E7E0D34408F8E7320400009B
:1056F000FE0700000A0DCC0F531E1B05C91A5205E8
:1057000003D3C943404200D30131520D03D0531C8F
:10571000DB0A07D0121B00206400611C8907891274
:10572000803A1203014BD21A70470000FF030000B9
:1057300051434343C9188C46110C83B24B4310B4F8
:10574000040C614392B280B2504362431C041B0CB0
:10575000001910BC59411304120CC0185141614486
:105760007047000070B513231D782A48FFF78AF8A8
:105770000400012D11D0012D09DDA31E1B789B0013
:105780007F2B40DD80222100234800F0CBF8234806
:10579000FFF770F8224B186070BD542201001E48BC
:1057A00000F0C0F81F4B1A881F4B9A421CD1A72348
:1057B0009B011A881D4B9A4216D11D4B1A881D4B0E
:1057C0009A4211D11C4B1A8894239B019A420BD107
:1057D0001A4B1A881A4B9A4206D11A4B1A681A4B5E
:1057E0009A4201D1152307E01848FDF76BFF990095
:1057F0001748094A885001331F2BF8D9144A064B21
:105800001A62DA61B7E7134B134A42211348FDF7D6
:10581000BFFEC04653460000341000204C33000049
:1058200030100020EE290000C40F0000C20D00005F
:10583000962B0000C0B50000182B0000CC2A0000F9
:1058400010B50000FC2C000051ED8764CCC10010A5
:10585000615800108CD4001008D50010C0D400107E
:1058600007B56046002800D100BE01880A0A023050
:10587000DF2AFAD1C9B2820804D302884088000422
:10588000104300E00068024A5050039007BD00003A
:105890003410002010B5040000F09EFB002804D056
:1058A0000419034B9C4200D810BD0248FDF70AFFC3
:1058B000000004201CD5001010B50C0000F02CFBDB
:1058C000002804D00419034B9C4200D810BD0248A4
:1058D000FDF7F8FE000004201CD5001010B50C00E8
:1058E00000F07AFE002804D00419034B9C4200D833
:1058F00010BD0248FDF7E6FE000004201CD5001094
:1059000010B500F073FB10BD01480421014B18478E
:10591000E002002095480010014B1B68184700006A
:10592000E0020020014B5B6818470000E002002005
:1059300010B50300080011001B68984710BD000057
:10594000F8B507000D001600437D002B02D000249F
:1059500000200CE003681100280098472DE03B7DF3
:1059600010E0022115483B689847601C0134B4429E
:1059700014DA002CF3DD2B19013B1B780D3B5A4246
:105980005341DBB22A5D0A2AF0D1002BEED1A042AE
:10599000E7DA211A28183B689847E2E7B04203DAB1
:1059A000311A28183B689847002E06DDAD19013DD5
:1059B0002B780D3B5A4253413B75F8BD9CD50010E6
:1059C00070B505000368002B16D00C4B1C6805E071
:1059D000290004C92000FFF7B3FF2469002C09D077
:1059E0002368002BF9D0064B1B68002BF0D0A34294
:1059F000F3D1EDE700232B6070BDC046E40E00201C
:105A0000EC0E002070B505000C000B68802B05D053
:105A100021684B1C23606418257170BD0800FFF7D6
:105A2000CFFFF5E7F0B583B007000E0000920193B9
:105A300028E0A368002B04D03100380098470028E4
:105A400027DC2469002C06D0134B1D68002DF0D0F4
:105A5000A542F6D1EDE70099019A104B5B6A9A4294
:105A600009D80E48806A88420FD29A4201D0012399
:105A700002E0002300E00023002B08D101200021D8
:105A8000FCF7C0FF064B1C68DCE70123F4E70120AC
:105A9000404203B0F0BDC046EC0E0020004005407F
:105AA000E40E002010B5FCF78DFF02000B1E0BDB8F
:105AB0000D48002112184B41002B0BDB002B0DDB96
:105AC0000A4806F00DF910BD094B0A4A3F210A4861
:105AD000FDF75EFD01225242084BEFE7044B054AF9
