:020000041000EA
:1000000000B5324B212058609868022188439860DF
:10001000D860186158612E4B002199600221596106
:100020000121F02299502B49196001219960352056
:1000300000F044F80222904214D00621196600F024
:1000400034F8196E01211966002018661A6600F04E
:100050002CF8196E196E196E052000F02FF8012189
:100060000842F9D1002199601B49196000215960AB
:100070001A491B48016001219960EB211966A021F2
:10008000196600F012F800219960164914480160C1
:100090000121996001BC002800D000471248134993
:1000A000086003C880F30888084703B5996A0420EC
:1000B0000142FBD001200142F8D103BD02B5186610
:1000C0001866FFF7F2FF186E186E02BD00000240BE
:1000D000000000180000070000035F00212200005C
:1000E000F4000018222000A00001001008ED00E03C
:1000F00000000000000000000000000074B24E7A12
:1001000000200420F7010010C3010010C5010010F9
:10011000C1010010C1010010C1010010C101001097
:10012000C1010010C1010010C1010010C701001081
:10013000C1010010C1010010C9010010CB01001065
:10014000CD010010CD010010CD010010CD01001037
:10015000CD010010CD010010CD010010CD01001027
:10016000CD010010CD010010CD010010CD01001017
:10017000CD010010CD010010CD010010CD01001007
:10018000CD010010CD010010CD010010CD010010F7
:10019000CD010010CD010010CD010010CD010010E7
:1001A000CD010010CD010010CD010010CD010010D7
:1001B000CD010010CD010010CD010010CD010010C7
:1001C00000BE00BE00BE00BE00BE00BEEFF3058054
:1001D000103800BEF2EB8871CCD90010F0D90010B5
:1001E0003402001090A31AE700201F49086006C8D7
:1001F00081F3088810471D48006800282FD10DA4FE
:100200000ECC002902D000F012F8F9E71849194A7B
:10021000002000E001C19142FCD1174988471749ED
:1002200088471749884700BEFDE701C901C29A42C5
:10023000FBD37047F0D90010C0000020C40C002090
:10024000F4E500100000042000000420F4E5001094
:10025000001004200010042000000000704709482E
:1002600004F022F90047000008ED00E0000000D093
:10027000C80C00204411002001320010B50300100A
:10028000BD3100105756000006005250ABB360530A
:10029000CCCF001006005250861C030200BC001098
:1002A000060052505422A29DDCCF0010050052508F
:1002B000DE65F468F4E50010F8B5C04610B5064CEC
:1002C0002378002B07D1054B002B02D0044800E017
:1002D00000BF0123237010BDD80D002000000000D6
:1002E00028B90010044B10B5002B03D00349044873
:1002F00000E000BF10BDC04600000000DC0D002083
:1003000028B9001010B5094C23680133236000F0B0
:1003100037FC00F097FB411D2268054805F0F4FA10
:10032000206800F05BFB012010BDC04634110020A6
:1003300028B90010002803D1064B00221A6070472C
:100340000128FCD10029FADD024B01221A60024B80
:100350001960F4E7380200203C02002010B500F0DC
:100360003BFC00F06FFB9023C358002B0CDD0D4BC2
:100370001B68002B14D00C4B1A680C4B1B689A425C
:100380000ED300F0A9FB0BE0074B1C6800F05AFBF2
:100390009023C2582100064805F0B6FA00F0CCFBC5
:1003A00010BDC04638020020301100203C02002061
:1003B00054B9001030B58DB005F0B2FA192001F033
:1003C00019F8D0231B06802292045A62294805F0AE
:1003D0006BFA294805F068FA00F032FD00F044FDA0
:1003E00005000100254805F08FFA254805F08CFA34
:1003F0000AA9244806F0D2F80AA805F0A1FB0400D7
:100400000AE0214805F080FA0AA91E4806F0C6F85D
:100410000AA805F095FB0400AC42F2DC002CF0DDEC
:1004200021001A4805F070FA013C00F00DFA00F0C6
:1004300023FC01F0F1FD04AB029300230193144B64
:100440000093144A002301F02DFF00F0FBFA411D38
:10045000114805F059FA00F07FFC00F03DFB200048
:1004600000F004FD00F024FD0C4805F01DFAFFF734
:1004700075FFFCE77CB90010A8B90010C4B90010E2
:10048000D0B90010D8B90010DCB9001000BA0010C3
:100490000503001020A107001CBA001030BA00109C
:1004A00000B583B0002808D00023036002000832A2
:1004B00042608060C36003B000BD044B0093044BF6
:1004C000044A3F21044800F089FCC04690BA00105D
:1004D00048BA001050BB001060BA001000B583B0DD
:1004E000002802D0406803B000BD044B0093044BC9
:1004F000044A4A21044800F071FCC04690BA00103A
:1005000048BA001044BB001060BA001000B583B0B8
:10051000002818D00368002B10D00023002B0AD12C
:10052000002812D00368002B11D04368002B00D0A4
:100530000123002B0DD0406803B000BD4368002BA1
:10054000ECD00123EAE70023E8E70023F1E70023EA
:10055000EFE7044B0093044B044A5421044800F095
:100560003DFCC046A0BA001048BA001038BB0010CD
:1005700060BA001000B583B0002802D0083003B084
:1005800000BD044B0093044B044A6021044800F072
:1005900025FCC04690BA001048BA00102CBB0010D1
:1005A00060BA001000B583B000281DD00368002B8E
:1005B0001CD04368002B00D00123002B0AD1002857
:1005C00016D00368002B15D04368002B14D00023ED
:1005D000002B13D0002919D003680B604860036812
:1005E0005960016003B000BD0023E6E70023E4E7A3
:1005F0000023EDE70023EBE70123E9E7074B009336
:10060000074B084AAB21084800F0E8FB074B009372
:10061000034B044AAC31044800F0E0FBC8BA0010B8
:1006200048BA001074BB001060BA0010F4BA001091
:1006300010B50C00FFF79EFF2100FFF7B3FF10BDC0
:1006400000B583B0002810D00368002B0FD043689A
:10065000002B00D00123002B0BD0026843685360AD
:1006600002681A60406803B000BD0023F3E700236E
:10067000F1E7044B0093044B044AFB21044800F0CB
:10068000ADFBC04604BB001048BA001068BB0010A8
:1006900060BA001070B50500FFF720FF04002800C5
:1006A000FFF768FF201A43425841C0B270BD0000F6
:1006B00010B582B00400FFF7EDFF002802D160689A
:1006C00002B010BD8D21044B0093044B044A490035
:1006D000044800F083FBC04618BB001048BA001065
:1006E0005CBB001060BA001010B5FFF7E1FF04001A
:1006F000FFF7A6FF200010BD014B18687047C046E9
:1007000034110020002806D09423C258044B9A428A
:1007100003D0002070470020FCE70120FAE7C04624
:100720004BBF6ACD6846000B00037047014B186849
:100730007047C0462C110020024B1868421C1A60FA
:100740007047C0464002002030B583B004000D0061
:10075000FFF7D8FF002806D0AB070CD1A369581BC0
:10076000A06103B030BD084B0093084B084AB32189
:10077000084800F033FB084B0093044B044AB421B3
:10078000044800F02BFBC046B4BB001048BA001070
:1007900020BE001080BB0010C4BB001030B583B079
:1007A00004000D0000281DD0002923D0982200212C
:1007B00004F0CCFE02232371601D1022290005F0F5
:1007C00043FF80235B01E318A36194230D4AE250A9
:1007D000043B0D4AE250210024310C48FFF728FF6A
:1007E00003B030BD0A4B00930A4B0B4ADC210B4887
:1007F00000F0F4FA0A4B0093064B074ADD21074844
:1008000000F0ECFA4BBF6ACD7F969800440E0020B2
:10081000E4BB001048BA00102CBE001080BB0010D2
:10082000F0BB001010B50648FFF734FF002802D0D7
:10083000044B186810BD0248FFF756FF2C38F9E743
:10084000000F0020D80E002070B51048FFF728FEDA
:100850000F48FFF725FE0F48FFF722FEFFF762FF64
:100860000D4C20600D49FFF799FF256800232B717F
:10087000FFF762FF28602168094B19600A790B684D
:100880000531084805F040F870BDC046000F002053
:10089000440E0020E00E0020DC0E002000BC001002
:1008A0002C11002008BC001010B582B00400FFF726
:1008B00029FF00280BD02379022B11D121002C31E4
:1008C0000C48FFF7B5FE0123237102B010BD3A2199
:1008D000094B0093094B0A4AFF310A4800F07EFA9F
:1008E0009E21094B0093054B054A4900054800F03D
:1008F00075FAC046000F0020B4BB001048BA0010C3
:1009000010BE001080BB001058BC001010B582B0A3
:100910000400FFF70BFF002303710E4A1360002C45
:1009200002D02379032B01D002B010BD0A4B1B6803
:10093000A342F9D0A04203D0200004F0FBFDF3E76E
:10094000F521064B0093064B064A4900064800F085
:1009500045FAC04630110020DC0E002074BC0010A7
:1009600048BA0010ECBD001080BB001030B583B059
:10097000FFF7DCFE0400FFF755FF05002379002B8D
:100980000DD0FFF7BFFE002812D0AC4219D02900CD
:10099000200000F03BFAFFF7B9FF03B030BDBC21E7
:1009A000094B0093094B0A4A49000A4800F016FA1D
:1009B0007A21094B0093054B054AFF31054800F0A9
:1009C0000DFA0020E7E7C04680BC001048BA0010CE
:1009D00004BE001080BB0010A0BC0010F8B50600DB
:1009E0001248FFF77BFD04000BE021002739104877
:1009F00004F08AFF2000FFF723FE04003800FFF711
:100A000053FF0A48FFF7B6FD84420ED027002C3F63
:100A1000F317BD6BFA6B9A4202D8E6D1B542E4D91E
:100A20002000FFF773FD0400EBE7F8BDE00E0020A7
:100A3000B4BC001000230371014B18607047C0461E
:100A40002C11002010B582B0FFF770FE0400FFF7F4
:100A500059FE002805D02379002B0AD1200002B0CE
:100A600010BD084B0093084B084A0949094800F09B
:100A7000B5F99821084B0093034B044A89000548B7
:100A800000F0ACF9B4BB001048BA0010DCBD001097
:100A90005F02000080BB0010CCBC001010B5EFF36B
:100AA000108472B6FFF7CEFF02230371FFF75EFFDB
:100AB00084F3108810BD000010B5054804F0F4FE62
:100AC000FFF7C0FF034B1860FFF7E8FFFCE7C046E5
:100AD000E8BC0010D80E002070B5FFF7B3FF04008B
:100AE0001048FFF7D7FD00281AD10F4B1B68A3420F
:100AF00012D00E4B1B68A3420ED00D4B1D68FFF7A2
:100B0000A1FF9023C25829000A4804F0FDFE2100ED
:100B10002C310448FFF78CFD01232371FFF726FFDA
:100B200070BDC046000F0020D80E0020DC0E002053
:100B30003011002004BD001010B5FFF783FF0D4BEE
:100B40001B68984213D00C4B1B6898420FD024307E
:100B5000FFF776FDFFF776FF411D084804F0D4FE4D
:100B6000FFF770FF03230371FFF700FF01E0FFF7BA
:100B7000B3FF10BDDC0E0020D80E002034BD0010E5
:100B800070B5FFF75FFF104B1B68834211D00F4910
:100B9000012200230C684D6812196B410A604B60FA
:100BA0000B4A13680133136090228358013B835032
:100BB00070BD0849012200230C684D6812196B4171
:100BC0000A604B60ECE7C046D80E0020D00D002034
:100BD00030110020C80D002010B5FFF733FF044B83
:100BE0001B68834200D010BDFFF758FFFBE7C046EB
:100BF000D80E0020F8B5CE46474680B50500894698
:100C000090461F009821012004F070FC041E29D09A
:100C10002900FFF7C3FDFFF78FFD0600206090233A
:100C2000E7503A002900114804F06EFE0C21200024
:100C3000FFF78AFD002303604B4643604346836011
:100C40002000FFF731FE0A4B9D4206D0FFF7C4FF9C
:100C50003000C0BCB946B046F8BD022EF6D1054BF7
:100C60001C60F3E701267642F2E7C0464CBD001057
:100C700078BD0010D80E002010B5034B00220349A8
:100C80000348FFF7B7FF10BDE7030000B90A0010E3
:100C900078BD001070B50500EFF3108672B6FFF74F
:100CA000D1FE0400FFF728FD4019C317A063E363DA
:100CB00021002C310348FFF7BBFCFFF7EFFE86F362
:100CC000108870BDE00E002010B50400FFF714FD81
:100CD000002C00DC10BDFFF7B5FE411D22000348CB
:100CE00004F012FE2000FFF7D5FFF3E780BD0010EF
:100CF00030B583B0051E07D0114804F005FE28006A
:100D0000FFF7ECFB040011E09F210E4B00930E4B0C
:100D10000E4A89000E4800F061F8210027390D487D
:100D200004F0F2FD2000FFF7F1FB04002800FFF7BC
:100D300021FC8442F1D10A2004F050FD03B030BD03
:100D4000A0BD001090BA001048BA0010C8BD001035
:100D500080BB0010A8BD001010B50B48FFF7BEFB0C
:100D6000040008E021001F39084804F0CDFD2000F0
:100D7000FFF7CCFB04000448FFF7FCFB8442F1D1F1
:100D80000A2004F02BFD10BD440E0020A8BD001069
:100D900010B50248FFF7ACFF10BDC046000F0020A1
:100DA00010B50248FFF7A4FF10BDC046E00E0020BA
:100DB00010B50A2004F012FD064804F0A5FDFFF767
:100DC000E7FF054804F0A0FDFFF7EAFF0A2004F062
:100DD00005FD10BDB4BD0010BCBD001008B430B599
:100DE00082B0130005AC20CC0A000100064804F0D4
:100DF0008BFD01942100280004F066FD0A2004F018
:100E0000EDFC012002F0DAF938BE001010B5040044
:100E100008001B1CE3652B1C6366331CA3663B1C8C
:100E2000E3666B468422A350CB6D1B1C4B6E1D1CCE
:100E30008B6E1E1CCB6E1F1CFFF7FCFD200010BD2F
:100E400010B5002308E05C1CDB00054A9A5821001D
:100E5000044804F059FD23000A2BF4D910BDC04604
:100E6000B0BF001060BE00100B207047C000014BE7
:100E7000C0587047B0BF00100FB430B583B006AC97
:100E800020CC094B1968094804F03EFD019421006B
:100E9000280004F019FD0A2004F0A0FC03B030BCC7
:100EA00008BC04B01847C0462811002070BE0010CE
:100EB00030B583B005000F4C0E4B58339C4211D215
:100EC0002168280005F07CFB002801D00834F3E7F6
:100ED000094B1D6029000948FFF7CEFF636898475A
:100EE00003B030BD0095064B064A36210648FFF791
:100EF00075FFC046B0BF00102811002078BE00105A
:100F00008CBE0010A4BF0010A0BE001010B5024897
:100F1000FFF7B2FF10BDC04608C0001010B582B088
:100F2000D0231B06802292045A61FA20800001F02F
:100F3000AFFA00210020FFF7FDF90E4B1A6800926E
:100F40009A8869468A809B798B7100240BE0220085
:100F50000949684603F07CFA0A230022002168460A
:100F6000FFF748FE0134042CF1DDFFF721FF02B04A
:100F700010BDC04630C0001024C0001010B582B0B3
:100F8000D0231B06802292045A61FA20800001F0CF
:100F90007FFA05210120FFF7CDF90E4B1A68009268
:100FA0009A8869468A809B798B7100240BE0220025
:100FB0000949684603F04CFA0A23002200216846DA
:100FC000FFF718FE0134042CF1DDFFF7F1FE02B04B
:100FD00010BDC04630C0001024C0001010B582B053
:100FE000D0231B06802292045A61FA20800001F06F
:100FF0004FFA01210120FFF79DF90E4B1A6800926C
:101000009A8869468A809B798B7100240BE02200C4
:101010000949684603F01CFA0A23002200216846A9
:10102000FFF7E8FD0134042CF1DDFFF7C1FE02B04B
:1010300010BDC04630C0001024C0001030B583B0D1
:10104000D0231B06802292045A61FA20800001F00E
:101050001FFA00210020FFF76DF9114B1A6800926A
:101060009A8869468A809B798B71002411E005F08B
:10107000B3F8192103F044FA4D1D220009496846CE
:1010800003F0E6F92B00002200216846FFF7B2FDCD
:101090000134042CEBDDFFF78BFE03B030BDC046FE
:1010A00030C0001024C0001030B583B0D0231B0620
:1010B000802292045A61FA20800001F0E9F90521AA
:1010C0000120FFF737F9114B1A6800929A88694698
:1010D0008A809B798B71002411E005F07DF819213D
:1010E00003F00EFA4D1D22000949684603F0B0F9DD
:1010F0002B00002200216846FFF77CFD0134042C00
:10110000EBDDFFF755FE03B030BDC04630C0001028
:1011100024C0001070B50E4C21680E4804F0F4FB9A
:101120000D4D22680D49280003F092F91423002286
:1011300000212800FFF75EFDFFF73AFE2368013328
:101140002360074804F0B0FB0648002170BDC0468C
:10115000840E002038C000104402002024C000107B
:1011600080C0001024E3520030B585B0D0231B06A8
:10117000802292045A61FA20800001F089F904214A
:101180000120FFF7D7F8002410E01F4D22001F496F
:10119000280003F05DF91E4A13680133136014231D
:1011A000002200212800FFF725FD0134022CECDD90
:1011B00000F032FF040001F01FFA02000B1E13DBE7
:1011C0001448002112184B41002B13DB002B15DBB8
:1011D00000210291019110490091200000F032FF9E
:1011E000FFF7E6FD05B030BD0C4B0D4A3F210D4821
:1011F00001F0E8FF012252420B4BE7E7074B084A98
:101200003F21084801F0DEFF4402002024C0001006
:10121000840E0020C0E2520015110010A8C000107A
:101220000CC10010C4C00010FFFFFF7F10B582B0DA
:10123000D0231B06802292045A61FA20800001F01C
:1012400027F905210020FFF775F86846084B0200D2
:1012500012CB12C20F2300220021FFF7CBFCFFF7B5
:10126000A7FD1920FFF730FDFFF7A2FD02B010BD6A
:1012700024C1001010B582B0D0231B068022920436
:101280005A61FA20800001F003F905210020FFF7E0
:1012900051F8104B1A6800929A8869468A809B79A7
:1012A0008B71002410E022000B49684603F0D0F84F
:1012B000013463001B19002200216846FFF79AFCE5
:1012C000A0000019FFF700FD042CECDDFFF770FD16
:1012D00002B010BD30C0001024C0001010B582B0A4
:1012E000D0231B06802292045A61FA20800001F06C
:1012F000CFF804210120FFF71DF8104B1A68009267
:101300009A8869468A809B798B71002410E02200BC
:101310000B49684603F09CF8013463001B19002256
:1013200000216846FFF766FCA0000019FFF7CCFC1F
:10133000042CECDDFFF73CFD02B010BD30C0001006
:1013400024C0001010B50248FFF796FD10BDC0463E
:101350002CC1001010B582B0D0231B06802292044D
:101360005A61144801F094F805210020FEF7E2FFCD
:10137000114B1A6800921B796A46137100240DE024
:1013800022000E49684603F063F80134A2001219E6
:10139000530000220A496846FFF72CFC042CEFDDBD
:1013A000FFF706FDD0231B06802292045A6102B08B
:1013B00010BDC046B80B000050C1001048C100105D
:1013C0004513001010B58300084A944663441C6816
:1013D00040226240C02414408022520113431C600A
:1013E000C000034B9C466044416010BD04C00140F6
:1013F0000040014010B501238340D02212069362C1
:1014000093610521FFF7DEFF10BD0000034B1B6851
:1014100002201840431E9841C0B2704700C00640E9
:10142000EFF3108072B6034B1B68002BFBD0BFF3A9
:101430005F8F70472C0100D0BFF35F8F024B0022FB
:101440001A6080F3108870472C0100D0F8B50600B0
:101450000C001500FFF7E4FFE308F718F15C072222
:101460002240012393400B4205D1DBB20B433B707A
:10147000FFF7E2FFF8BD2100280001F03DFF00006A
:10148000002307E0054A9A189200BFF35F8F0021FE
:10149000116001331F2BF5D97047C046400000345E
:1014A000054A1078431CDBB21370172B02D91300C6
:1014B00010221A707047C0464B020020074B9B68F1
:1014C000103080001950BFF35F8FBFF35F8F044B64
:1014D0000021196082F310887047C04600ED00E0DB
:1014E000240100D010B5091A081F0A4B9C4661441C
:1014F000094A914208D8C30706D440104005400D60
:10150000064B184380B210BD054B064AA32106487E
:1015100001F058FEFC070000FE0F000000E0FFFF96
:1015200058C10010ACC3001088C1001010B5091AD2
:1015300004394C08090B08D14905490D064A1143E5
:101540000180064B2343438010BD054B054AAB2168
:10155000054801F037FEC04600F0FFFF00F8FFFF2E
:10156000C8C1001080C3001088C10010012383404F
:10157000034A10681840431E9841C0B27047C046E5
:1015800000E100E0002904D0034B1860034B186011
:101590007047034B1860FBE780E200E000E100E0E9
:1015A00080E100E010B5012383401800FFF7EAFF57
:1015B00010BD0000024B9B6810308000C05870477F
:1015C00000ED00E070B504000D00EFF3108672B678
:1015D0000C4B1B68002BFBD0BFF35F8F2000FFF785
:1015E000E9FF094B984201D0A84205D132002900F9
:1015F0002000FFF763FF70BD044B054A86210548B4
:1016000001F0E0FD240100D0CD010010D8C1001090
:10161000C8C3001088C10010F0B5CE46474680B55B
:1016200083B006000D00EFF3108872B6564B1B68AE
:10163000002BFBD0BFF35F8F544B9A6834001034FB
:10164000A300D758524B9F4207D0AF4200D198E039
:101650000197504BFB1A2F2B09D942463900300015
:10166000FFF72CFF03B0C0BCB946B046F0BD300058
:10167000FFF77CFF814600213000FFF793FFBFF3A7
:101680005F8FEFF30581002901D08C4211D1012336
:10169000019C9C430022A368AB4212D00622A256B2
:1016A000002A0DDB53009B189B002200394CE418E4
:1016B000F1E73621384B394AFF31394801F082FDD4
:1016C0002200AB4256D106256557002D38DB6B0052
:1016D0005B199A002F4B9B189A68A260DA79E27125
:1016E00006229A56A2719B795BB2002B0FDA2D4825
:1016F000A0806B005B199B00264AD3182A4A1178F8
:101700009971157049463000FFF74CFFA5E7201D81
:101710006B005B199B001F4A9B181A1D9B88D90AF6
:101720001C2907D15B055B15023359005118FFF7DF
:10173000D9FEDDE71D4B1E4AB121194801F042FDDB
:10174000002912D1002A0ED0FF239371194B9380E8
:10175000154A1378A371184B0E49641A6441634308
:101760001B0D1370CEE70A4FF2E7201D1349FFF758
:10177000DDFEC7E76A21124B084AFF31084801F035
:1017800021FD034F69E7C046240100D000ED00E0D1
:10179000CD0100104C020020ECC2001098C30010D4
:1017A00088C1001001BD000041110020D4C200100A
:1017B000B8C3001001BDFFFFAAAA000086020020E6
:1017C00020C3001070B5012101432E4BCB1A2F2BE3
:1017D00028D8EFF30583002B2BD0EFF3108C72B6D3
:1017E000294A1268002AFBD0BFF35F8F274A040002
:1017F000244D641B64416243120D54B2244A926822
:101800009B00D2588A421BD00022032A32D85300B0
:101810009B189B001B49CB189B795BB2A3421FD03E
:101820000132F2E7C7211B4B1B4A49001B4801F05C
:10183000C9FC92211A4B184AFF31184801F0C2FC2A
:10184000134A92681749D150174B1A7882711C704D
:10185000BFF35F8F0C4B00221A608CF3108870BDB1
:101860000D005300991889006918FF268E710F4AE0
:101870008A80E9E7D1210E4B074A4900074801F069
:10188000A1FCC0464C020020240100D0AAAA0000FE
:1018900000ED00E028C3001064C3001088C10010F0
:1018A00050C30010CD0100104111002001BDFFFF09
:1018B0005CC300100022044B02E0044902C3013261
:1018C000072AFAD97047C04600E400E08080808093
:1018D000024B9C466144890001607047400000341F
:1018E00010B50400FFF7DCFD01002000FFF7F0FF5A
:1018F000FF232371BFF35F8F10BD10B50400FFF706
:10190000CFFD01002000FFF7E3FFFF232371002339
:101910006371BFF35F8F10BD10B50C00CB688342BD
:1019200007D108000B699847002809D02068616832
:1019300010BD5221054B064AFF31064801F042FC1A
:101940000023E36000200021F2E7C04698C40010A5
:10195000FCC60010ACC4001070B505000C000800F7
:1019600000F04AFF0949200000F08AFEFFF798FDC9
:10197000074B9C466044800068602C75D0231B0692
:101980001B786B75A400034BE55070BD9D1C0010C7
:1019900040000034F00E00200A4B1A68EFF310816B
:1019A00072B61368002BFCD0BFF35F8F054B1B682A
:1019B000BFF35F8F00221A6081F3108840BF0020C0
:1019C000002170471411002010B5002922D00368AF
:1019D0001B7B99421ED8174B9C46614409018368C2
:1019E0009C4661440C684968002A19D003681B7B37
:1019F0009A4215D883680F488446624412019A18A7
:101A000010685368020001208B4201D80ED00020DC
:101A1000C0B210BD084B094A3C21094801F0D2FB75
:101A2000054B064A3C21064801F0CCFBA242EFD808
:101A3000EDE7C046FFFFFF0FE4C4001064C70010CD
:101A4000ACC4001010B500291ED0037B99421BD8EE
:101A50004B005B18033B0468A4466344002919D07B
:101A6000002A1DD0914221D0002A25D0047BA24219
:101A700022D8046850008018033820188170197823
:101A800000291FD11A7010BD104B114A682111484E
:101A900001F098FB104B114A6F310E4801F092FB98
:101AA0000F4B0E4A70210B4801F08CFB0D4B0B4A7B
:101AB0007121084801F086FB044B054A682105485E
:101AC00001F080FB41701A70DDE7C04608C50010C8
:101AD000D0C7001024C5001070C50010ACC700109E
:101AE0007CC5001088C5001070B506000D001400FC
:101AF000002914D0002A14D0806873689847002801
:101B000006D0220029003000FFF79CFF280007E0E4
:101B10002A0021003000FFF795FF200000E01000B0
:101B200070BD0800FCE70000F0B583B0050000922E
:101B300001930AAB1C780BAB1F78002C26D00368EE
:101B40005A7B944207D10123002B19D1002C3BD1A1
:101B5000200003B0F0BD002C0CD01A7B944209D8B1
:101B60001A6863001B19033BD3189B78002BEBD03A
:101B70000123E9E73E4B3F4A68213F4801F022FB41
:101B80003E4B3F4A67213F4801F01CFB03689C7BAA
:101B9000002CDBD012D01A7B94420FD862001219AD
:101BA000033A19688C46624451789973002900D130
:101BB000D9730023937053701370C7E72C4B2D4AD1
:101BC00068212D4801F0FEFA002C3AD02B681B7BCF
:101BD0009C4236D82C4BE3181B01AA6894466344F8
:101BE000009A1A60019A5A60089A9A60099ADA6013
:101BF0002E68002C2BD030D0337B9C422DD8630034
:101C00001B19033B32689446634400229A705A7051
:101C10001A70717B22003000FFF766FF70738442F8
:101C200000D095E7287D009A019B00F071FD061E0B
:101C300001D0002F17D00C9B002B00D188E71E701D
:101C400086E7124B124A3C210E4801F0BBFA114BB9
:101C5000114AA521084801F0B5FA054B054A68214B
:101C6000054801F0AFFA2868210000F089FFE2E79B
:101C700008C50010D0C7001024C50010A0C5001072
:101C8000DCC70010ACC40010FFFFFF0FE4C400105D
:101C900064C70010A8C40010C0C70010F0B5DE462D
:101CA00057464E464546E0B58BB009900023089351
:101CB0008200B54BD658370052E0B44BB44A3F21AE
:101CC000B44801F07FFAB44BB44A3C21B44801F067
:101CD00079FA002901D1002869D10021404600F09D
:101CE00045FFA04219D12A686B6806920793AB683A
:101CF0009846EB689A464346002B14D0002C18D027
:101D00003B681B7B9C4214D8631EFA68D35C089323
:101D10001B0218433861002015E0A24BA24A8E2115
:101D20009F4801F04FFAA14B9F4A92219C4801F035
:101D300049FA994B9E4A4121994801F043FA002300
:101D40009A46984600207B68BFF35F8F00221A6096
:101D500086F310884346002B32D1002800D10CE1D5
:101D600000F04AFC02000B1EA7DB002000210690B9
:101D700007917868EFF3108672B601680029FCD0ED
:101D8000BFF35F8F396888464C7B002CD7D09AD040
:101D9000097B8C4297D8874965182D01B9688C4614
:101DA000654428686968801A9941002991DD2A688C
:101DB0006B68099800F0ACFC00239A469846C2E78D
:101DC000089B1B022343994651461800C047050053
:101DD0000E007A68EFF3108B72B6136859424B41CC
:101DE000D9B2002BF9D1BFF35F8F002E1EDB002E7E
:101DF00046DD3B69002B47D04B456DD100F0FCFB25
:101E000002000B1E6EDB52197341002B70DB002B9E
:101E100072DB00210491013103910294514601913A
:101E2000414600913800FFF77FFE4CE03B69002BF4
:101E3000DDD04B4514D1069A079B521BB341002BB2
:101E400014DB002B16DB0021049101310391029475
:101E500051460191414600913800FFF765FE32E09E
:101E6000554B514AA1214E4801F0ACF90122524292
:101E7000524BE6E7454B464A3F21464801F0A2F95E
:101E8000002E01D1002DB4D13B68002C50D05A7BDC
:101E9000944237D1012100294AD1DA7B002A4DD161
:101EA0009A7B002A03D1DA7B002A5AD19C73DC7317
:101EB000002C5CD03B681B7B9C4258D8FA68013CE4
:101EC000135D0133135500233B617A68BFF35F8FC5
:101ED00013608BF3108843E7374B334AA421304813
:101EE00001F070F9294B2A4A3F212A4801F06AF98A
:101EF00001225242314B8AE7244B254A3F21254893
:101F000001F060F9002C0DD01A7B94420AD86200CF
:101F10001219033A1868844662449278002ABAD0AB
:101F20000121B8E7264B274A6821274801F04AF9E2
:101F3000264B274AF621244801F044F9002A0AD00A
:101F4000197B8A4207D851008A18033A19688C46CF
:101F500062445470A4E71A4B1A4A68211A4801F0E7
:101F600031F91C4B1A4AFB21174801F02BF90A4B97
:101F70000F4A41210A4801F025F90BB0F0BCBB46DD
:101F8000B246A946A046F0BDF00E0020A8C0001041
:101F900030C70010C4C00010E4C4001064C70010B3
:101FA000ACC40010C8C5001048C70010E0C5001040
:101FB00088C70010FFFFFF0FECC50010FFFFFF7F79
:101FC00008C50010D0C7001024C5001028C6001096
:101FD0009CC700104CC6001010B50C4B5B68002B62
:101FE00004D00A210A48FFF773FC10BD074C2300F8
:101FF000084A1021206800F0C9FC032000F0F0FA24
:1020000003212000FFF7A8FCEBE7C0469402002064
:1020100014110020C919001010B5064B5B68002B85
:1020200001D0044810BD044B044A5E21044801F06D
:10203000C9F8C0469402002060C6001070C70010A6
:10204000ACC40010F0B5DE4657464E464546E0B5F6
:102050008BB0804616001F00149B9A46159B99462C
:1020600016AB1B789B461F2302AA944663440022AA
:102070001A702BE0002809D042461268127B904269
:1020800004D8421E4146C9688A5C41E0404B414A3F
:102090004121414801F096F807984CE0361BAF41CA
:1020A000002F07DB002F11DA3C4B3D4A3F213D4812
:1020B00001F088F8012676423B4FF3E7374B384A68
:1020C0003F21384801F07EF8002F4FDB43465A6825
:1020D000EFF3108472B6136859424B41D9B207919D
:1020E000002BF8D1BFF35F8F1F3302AA94466344DD
:1020F00004930023039302934B46019353460093AA
:1021000032003B004046FFF70FFD031EB2D1020034
:1021100041464968BFF35F8F00250D6084F3108846
:10212000002B29D01F2302A98C4663441B78002B67
:10213000B2D112021043002B20D05B46002B1DD0E1
:102140004946D04704000D0003000B431DD0002971
:10215000A4DB00F051FA06000F1EAFDB36196F4109
:10216000002FB1DA012676420F4FADE70B4B0C4A38
:102170003F210C4801F026F8012040420BB0F0BC92
:10218000BB46B246A946A046F0BD0798F6E7C04652
:10219000E4C4001088C70010ACC40010A8C0001030
:1021A00030C70010C4C00010FFFFFF7FF8B5040067
:1021B000002900D162E04268EFF3108572B613681F
:1021C00058424341D8B2002BF9D1BFF35F8FCBB255
:1021D0002268567BB3421BD10120002848D02069D9
:1021E00088422BD0090AC9B2002B2ED02068007B70
:1021F00083422AD8581EE668305C88422BD00020E3
:102200006368BFF35F8F00221A6085F31088F8BD02
:10221000002B0DD0167BB3420AD85E00F618033EA1
:102220001768BC466644B678002ED6D00120D4E7A5
:10223000134B144A6821144800F0C4FF2C21134B9F
:10224000134AFF31134800F0BDFF134B134A4121DD
:10225000104800F0B7FF1900100000F091FC0028B2
:10226000CED199210E4B0A4A49000A4800F0AAFF34
:1022700023698B42C4D100232361C1E70020C6E754
:1022800008C50010D0C7001024C5001084C6001077
:1022900018C70010ACC40010E4C4001088C70010B8
:1022A000A8C60010F0B585B00700100019000C9EFC
:1022B00013000B4301D101200021B7600A9B336159
:1022C000306071600B9B7361CA17130050400400AB
:1022D00051400D00A41A9D4100F08EF902000B1E22
:1022E00012DB12196B41002B14DB002B16DB0121D2
:1022F000029101960C4900913800FFF7A3FEF060AF
:10230000C043C00F05B0F0BD084B094A3F21094842
:1023100000F058FF01225242074BE6E7034B044A04
:102320003F21044800F04EFF19190010A8C000100A
:1023300030C70010C4C00010FFFFFF7FF0B587B0AA
:1023400006000F00EFF30583002B1FD10624644223
:10235000E517A4197D418D4202D803D1844201D9E9
:1023600000240025002D14DB0494059500F044F9A9
:1023700002000B1E13DBA41A9D41002D17DC14D0A4
:102380003000390000F044F907B0F0BD234800F0F8
:10239000B3FF234B234A3F21234800F013FF204B78
:1023A000204A3F21204800F00DFF002CE8D0FFF725
:1023B00033FE0023029301931C4B0093049A059B68
:1023C000FFF740FE002818DADAE7002300E00023D8
:1023D000002BD5D1164B1A68EFF3108172B6136833
:1023E000002BFCD0BFF35F8F114B1B68BFF35F8FD7
:1023F00000221A6081F3108820BF0499059A0D4BC2
:102400005B6A9A42E3D80B48806A884203D29A42B8
:10241000DBD00123DCE70123DAE7C046ACC60010BD
:10242000A8C0001030C70010C4C0001099190010D7
:10243000141100200040054070B504000D0000F0AC
:10244000DBF802000B1E0ADB20002900801859412E
:1024500000290ADB00290CDBFFF770FF70BD084B79
:10246000084A3F21084800F0ADFE012040420749DC
:10247000F0E7034B034A3F21034800F0A3FEC046A8
:10248000A8C0001030C70010C4C00010FFFFFF7FBD
:1024900010B5FA2292000023002102F063FFFFF73B
:1024A000CBFF10BD70B584B005000C00EFF30583C1
:1024B000002B1ED1FFF7B0FD002302930193224BA6
:1024C00000932A002300FFF7BDFD061E23DD20BF79
:1024D000FFF7A2FD3100FFF769FE1C4B5B6A9C42CF
:1024E0002DD81A4A926AAA422CD29C4225D00120A9
:1024F00026E0164B5B6A994209D8144A926A8242D6
:1025000007D2994201D001201AE0002018E00020F3
:1025100016E0012014E00D4B5B6A9C4209D80B4A7F
:10252000926AAA4207D29C4201D0012008E0002012
:1025300006E0002004E0012002E0002000E000208E
:1025400004B070BD0120FBE7991900100040054060
:1025500070B5EFF305801038EFF3108C72B61A4B9C
:102560001B68002BFBD0BFF35F8F01221300834059
:1025700016494B6316490B60164909780C00C44094
:10258000224214D0114A546A8200134D5259944287
:1025900006D38200114C125999430E4B197007E073
:1025A0000A4A031D9B0099589950002200E000221E
:1025B000BFF35F8F044B002119608CF31088002A51
:1025C00000D0904770BDC046280100D000400540B3
:1025D0003C7005404211002018110020340E0020EC
:1025E00010B50100024A0348FEF730FF10BDC04697
:1025F00000C8001040110020044B5B6A034A906A37
:102600001900536A9942F9D17047C046004005400D
:10261000084B5B6A01E0074B5B6A8B42FBD301E02E
:10262000044B5B6A8B4203D1024B9B6A8342F7D314
:102630007047C0460040054070B504000D00FFF72C
:10264000DBFF02000B0020002900801859418B425B
:1026500002D804D1824202D901204042C117002988
:1026600002DBFFF7D5FF70BD024B034A3F21034851
:1026700000F0A8FDA8C00010A8C80010C4C0001039
:1026800070B504000D00EFF3108672B61B4B1B688B
:10269000002BFBD0BFF35F8F002D1CD02000FEF776
:1026A00089FF174B83420BD019002000FEF78AFFE9
:1026B00001212000FEF776FF0123A340114A136099
:1026C000A400114BE550BFF35F8F0C4B00221A6042
:1026D00086F3108870BDA2000B4B0021D15001225F
:1026E000A2400A490B7893430B7005492000FEF77E
:1026F00093FF00212000FEF755FFE4E7280100D0FA
:102700005125001038600540340E00204211002091
:10271000F0B5DE4600B584B00400150001921E003D
:102720000293FFF769FF03958E4202D84ED185428E
:102730004CD9EFF3108B72B6274B1B68002BFBD0E4
:10274000BFF35F8F254A17780125A540EBB23B43C5
:102750001370234B5D63221D92000199D150A2009A
:102760002049029850501B6A2B4212D11C4B1B6C03
:102770002B4208D00020BFF35F8F174B00221A6056
:102780008BF3108823E0184B184AC521184800F035
:1027900019FDFFF731FF8E4214D802D1039B83420B
:1027A00010D80E4B1B78BB420ED00D4B1D625D63E3
:1027B0001F2004400123A3400E4A1360074B1F70E3
:1027C0001E38D8E70020D6E70120D4E7012004B066
:1027D00080BCBB46F0BDC046280100D0421100209D
:1027E000004005401811002024C800108CC80010BB
:1027F00048C8001080E200E0EFF3108C72B60B4B7B
:102800001B68002BFBD0BFF35F8F01238340084A76
:10281000136208490A789A430A70BFF35F8F034B2B
:1028200000221A608CF310887047C046280100D03F
:10283000004005404211002010B500291ED0037B46
:1028400099421BD84B005B18033B0468A4466344C1
:10285000002919D0002A1DD0914221D0002A25D06C
:10286000047BA24222D80468500080180338201844
:102870008170197800291FD11A7010BD104B114AB0
:102880006821114800F09EFC104B114A6F310E4830
:1028900000F098FC0F4B0E4A70210B4800F092FCA0
:1028A0000D4B0B4A7121084800F08CFC044B054A83
:1028B0006821054800F086FC41701A70DDE7C046CB
:1028C00008C50010B0C9001024C5001070C5001064
:1028D0009CC900107CC5001088C5001070B50600AA
:1028E0000D001400002914D0002A14D080687368E9
:1028F0009847002806D0220029003000FFF79CFFEF
:10290000280007E02A0021003000FFF795FF200093
:1029100000E0100070BD0800FCE7000010B50023C7
:10292000437301338373037BC3730123027B9A4296
:1029300014D9002B0CD0027B934209D85A00D2182C
:10294000033A01688C4662440133DBB25370EDE711
:102950000B4B0C4A68210C4800F034FC002A09D0CB
:10296000924207D8016853009A18033A8A18002344
:10297000537010BD024B034A6821034800F022FC4B
:1029800008C50010B0C9001024C5001010B50173AF
:1029900042608360FFF7C2FF10BD000070B5040005
:1029A000081E00D170BD002934D0237B994231D854
:1029B0004B005B18033B2268944663445A78002A14
:1029C000F0D02DD0237B9A422AD853009B18033B8A
:1029D00021688C4663445D7800215970002825D019
:1029E000237B984222D843001B18033B21688C4666
:1029F00063440021597001002000FFF76FFF0600BB
:102A000029002000FFF7CAFF020031002000FFF775
:102A100065FFC7E7084B094A6821094800F0D2FB67
:102A2000054B064A6821064800F0CCFB024B034ADE
:102A30006821034800F0C6FB08C50010B0C90010AB
:102A400024C5001070B505000C00160000292FD019
:102A500034D0037B994231D84B005B18033B0268AA
:102A6000944663445A78002A2ED19A78002A31D1AC
:102A70001978FFF793FF0300002E0AD0EA7B002AA3
:102A80002ED1AA7B002A03D1EA7B002A3BD1AC736A
:102A9000EC73002B3DD1002C4FD02B7B9C424CD8AB
:102AA0002B6861000C19033C1C190023637070BD76
:102AB000254B264A3821264800F084FB254B264A20
:102AC0006821264800F07EFB254B204A3A21204809
:102AD00000F078FB234B1D4A3B211D4800F072FBA0
:102AE000002A0AD0297B8A4207D851008A18033A63
:102AF00029688C4662445470C3E7164B164A682115
:102B0000164800F05FFB184B104A4221104800F0B5
:102B100059FB002B0BD02A7B934208D843001B188B
:102B2000033B2A689446634400229A70B3E7094B3A
:102B3000094A6821094800F045FB064B064A68210E
:102B4000064800F03FFBC046C0C8001088C900100E
:102B5000C8C8001008C50010B0C9001024C5001076
:102B600004C900102CC900104CC6001070B5040038
:102B70000A00457B2900FFF765FF6073280070BDE0
:102B800070B50400002967D0437B8B420ED000292A
:102B900011D0037B99420ED84B005B18033B0268AF
:102BA000D0188378002B0CD1002056E00121FFF7CC
:102BB000DDFF012051E0294B294A6821294800F016
:102BC00001FB002B20D0227B93421DD85A00D31842
:102BD000033B2268D2182568EB5C8B421AD0002B8D
:102BE0001BD0227B934218D85A00D318033B22688B
:102BF000D21853788B4216D0002BF0D11A4B1B4AB7
:102C00006B211B4800F0DEFA144B154A6821154869
:102C100000F0D8FA4378137007E0104B104A68218F
:102C2000104800F0CFFA437853700023837043704C
:102C300001222000FFF706FF0200617B814205D0E0
:102C40002000FFF74BFE6073012006E0094B074AA6
:102C50007121074800F0B6FA002070BD08C50010C9
:102C6000B0C9001024C500105CC3001070C900106A
:102C7000C8C8001050C9001070B5046BE30701D438
:102C8000200070BD02003032C0239B0113430A4A6A
:102C90001A60456A826AAD01AD18AD02062000F0E7
:102CA000BDF9064901F054FC0100280001F050FC78
:102CB0000021FFF7C1FCE3E7010300004E0E000016
:102CC00070B504000E001500FFF7D6FF22002C326D
:102CD000E16A4E40354080235B0113431D60206351
:102CE00070BD000070B505000C00062000F096F9DC
:102CF000C000210001F02CFCC60908D00E4B9E42FA
:102D000016D87F23184001303400460800E0012423
:102D10006C62AE62002200212800FFF7D1FF06207E
:102D200000F07CF98000A101891901F011FC70BD4F
:102D30000026024CECE7C046FEFF0000FFFF00004B
:102D400010B505394901013AD2001143002B09D0D1
:102D500002220A43012B07D0002111436E22FFF704
:102D6000AFFF10BD0022F4E70421F6E7002909D0E7
:102D70000A22064B9C466044434258414000044BA3
:102D8000C252704780225200F3E7C0460080FCBF69
:102D90003811002070B505000C00062000F03EF947
:102DA000061E27D0164B9D4226D08022D203154BFB
:102DB0001A60154B1A60154B9B6811009943FAD1A4
:102DC00000212800FFF7D2FF21002800FFF78AFF2B
:102DD00006000023012208212800FFF7B1FF2A0086
:102DE0002C3280239B01134310221A60084B2B6363
:102DF0000323AB64300070BD80221204D7E7C046C5
:102E00000080034000E0004000F0004000C00040AF
:102E100001030000F8B5DE4657464E464546E0B58C
:102E200005000F0092460A9A934250D31A0E91461B
:102E30001E020A9A00233000494601F0C7FB804673
:102E40006C006419A400304B9C4664446368834260
:102E500000D260602B1FDBB29B46012B3DD9C02303
:102E60009B012343802212011A60AB00274A995824
:102E7000002907D0506901F06BFB431C5800C018B3
:102E80000338FDD253465A0123685A40E0231A40C2
:102E900080235B0123431A605A46012A28D98023E4
:102EA0009B012343802212011A604346636042461D
:102EB00000233000494601F089FBAD00134B585107
:102EC0000120F0BCBB46B246A946A046F8BD104B57
:102ED000104A3321104800F075F9012FBFD1C023EB
:102EE0009B01234303221A60A368DB07FCD5C9E7D3
:102EF0002168794003220A401A60A2680123BB407E
:102F00001342FAD0CBE7C046008000405C0E0020A0
:102F1000BCC9001014CA0010D0C9001030B583B06D
:102F20000C2000F011F9FEF771FA00280DD00023F3
:102F300004E099002D4A2E4888500133092BF8D916
:102F40002A4B2C4A5A6203B030BD2B4B00229A67A1
:102F500000F002F9294B01221A60274B5B6C012B10
:102F6000FBD1274B03221A60234B9B6B012BFBD118
:102F7000013300930433234A0121234800F054F81D
:102F800005230093214A0121214800F04DF8214BEF
:102F90000093002202210420FFF73CFF1E4D009504
:102FA0002B00002201210520FFF734FF104C009474
:102FB0002300002200210720FFF72CFF00942300AC
:102FC000002200210820FFF725FF0A4B0093230071
:102FD000002200210920FFF71DFF00952B00002291
:102FE00000210620FFF716FFADE7C0465C0E00206B
:102FF000006CDC021BB70000008000403CB00040C9
:1030000030B00040002F685900800240008C864795
:1030100000C00240001BB700405973078000014BFD
:10302000C05870475C0E0020F0B5C64600B50400DD
:103030000E0017001D00374801F08AFA8046364B13
:10304000FA18364B9A4239D80100380001F080FA5C
:103050000200103A98235B009A4235D86B1E062B6B
:1030600038D8069B013B062B34D83F09474537D358
:103070002D04069B1A0315432368002B36DB284BCF
:103080009C4244D080225201264B1A60264B1A6083
:10309000264B9B6811009943FAD12660A060231D3E
:1030A000C02292011A43212313602368002BFCDA0B
:1030B000E5600823136080BCB846F0BD1C4B1D4A78
:1030C00011211D4800F07EF81C4B1A4A19211A489C
:1030D00000F078F81A4B174A1C21174800F072F8D4
:1030E000184B144A2321144800F06CF822683F233F
:1030F0001340B342C3D1A3681B051B0D8342BED14D
:10310000E368EE22D2021340AB42B8D1D3E780226B
:103110009201B9E7001BB70080E84BD380F8A932D1
:1031200000C0024000E0004000F0004000C000404D
:1031300024CA001048CB001084CA0010C4CA001072
:10314000E0CA00102CCB001080239B000343014AEF
:10315000D362704700800540064BAA2212011A6014
:103160002F22DA60044B054A1A60024B5B68002B81
:10317000FBDA7047004002400060024000B0FA00F5
:1031800000BEFDE703000A4A1268002A08D0084A78
:103190001068C318074A9A4206D3054A136070475D
:1031A000034A05491160F2E701204042F7E7C046B3
:1031B000D40E0020000004204411002010B5FFF7B9
:1031C000DFFF000010B582B00C001900002A0CD0FF
:1031D000084B002A0BD001920093230002000648FE
:1031E00002F092FB0120FFF7CBFF044BF1E7034A0B
:1031F000F1E7C04654CB001064CB001048BD00106E
:1032000070B52B4B2B4A1A602B4B2C4A1A602C4B57
:103210009A682A4B9343FAD12A4C01E008CC98478C
:10322000294B9C42FAD3FFF779FE234B274A1A60B9
:10323000234B9B68DB43DB01FAD1254B40229A6785
:103240005A671A67DA66234C09E0234B234A872121
:103250002348FFF7B7FF2000FEF742FB0834214B5D
:103260009C4209D22368002BF5D0012BEDD1200020
:10327000FEF743FB0834F2E71B4CA1681B4DC0224C
:10328000280002F069F9A560EFF30583002B00D058
:1032900000BEFEF7F5F8FEF70DFBFEF79DFE144CA1
:1032A00001E008CC9847134B9C42FAD370BDC0464E
:1032B00000E00040BFCDFBFE00F00040FE7F3C0080
:1032C00000C00040B00C0020C00C0020FFFFFF0138
:1032D00000F00140A80C002094CB001008CC001096
:1032E000B4CB0010B00C002000ED00E00000002086
:1032F000C00C0020C40C00200FB400B583B00848F7
:1033000002F0D2FA049B002B07D005A90191180006
:1033100002F0DAFA034802F0C7FA0120FFF730FFA3
:10332000F8CB001044C100109A4200D28854704774
:10333000704710B5002802D00B684968984710BD47
:103340000100002007E083001B185B00501C086090
:103350001078C01830380A681378303BDBB2092B7C
:10336000F1D97047F0B5DE4657464E464546E0B5C2
:1033700083B093461F000C9B9A460D9C0E9B99466A
:103380000F9B9B0703D0B8460F00060022E0019276
:10339000A34688464E46B9460700B44207D2551C9C
:1033A0004B4641462020B84701342A00F5E73D004E
:1033B0004F465C46019B9B46B1464646B8463700A1
:1033C0002E0007E0013C551C5346185D434639006A
:1033D000B0472A00002CF5D135003E0047460F9B30
:1033E0009B0707D4100003B0F0BCBB46B246A94609
:1033F000A046F0BDB0464E46B9462F005D46531B71
:10340000B342EFD2541C4B4641462020B84722001D
:10341000F5E7F0B5CE46474680B585B09446984668
:103420000C9D0D9C0EAB1B789946109A119B129E19
:10343000B7071CD4002B0CD0F7070AD54F46002F36
:1034400002D10C37374204D0013B02E030272F5520
:103450000134944201D21F2CF8D9F70707D59C42BA
:1034600005D21F2C03D830272F550134F5E7F70676
:1034700015D5770505D4002C03D0944224D09C4266
:1034800022D00F9A102A2BD00F9A102A30D00F9AE0
:10349000022A35D01F2C02D830222A5501341F2C85
:1034A00005D84A46002A31D02D222A5501340396E8
:1034B00002930194009543466246FFF753FF05B01F
:1034C000C0BCB946B046F0BD621E012C06D00F9FAD
:1034D000102F01D01400D4E7023CD2E71400D0E74B
:1034E000B206D1D41F2CCFD878222A550134D1E787
:1034F000B206CCD51F2CCAD858222A550134C9E7A8
:103500001F2CC7D860322A550134C3E7720703D590
:103510002B222A550134CAE73207C8D520222A5562
:103520000134C4E7F0B5DE4657464E464546E0B5A1
:1035300093B081468A46089209931CAB10CB1B7846
:103540009B461E9D219B9846002C03D1102342468A
:103550009A4390468023DB0046461E4042461A426C
:1035600012D0002C22D000260EE03033D9B2771CC6
:103570000AAB99552900200000F0EAFFAC4216D3AF
:103580001F2F14D83E0004002900200000F0E0FFA7
:10359000CBB2092BE9D94246920605D54121C9187B
:1035A000C9B20A39C9B2E2E76121F8E72700434608
:1035B0000693209B05931F9B049303955B46029300
:1035C00001970AAB0093099B089A51464846FFF7BA
:1035D00020FF13B0F0BCBB46B246A946A046F0BDE2
:1035E000F0B5DE4657464E464546E0B595B00890E4
:1035F00009910A920B931E9E1F9C20AB1B789B4641
:10360000229B9946239D269B9A463300234303D150
:10361000103352469A4392468023DB0057461F40A0
:1036200052461A4219D0330023432DD0002714E00C
:103630003033DAB27B1C98460CABDA554A462B0085
:103640003000210000F0C2FFA5421FD819D0434628
:103650001F2B1BD8474606000C004A462B003000A3
:10366000210000F0B3FFD3B2092BE1D952469206F4
:1036700005D54122D218D2B20A3AD2B2DAE7612293
:10368000F8E7B145E3D901E0002398465346069395
:10369000259B0593249B04934B4603935B4602931F
:1036A000434601930CAB00930B9B0A9A0999089827
:1036B000FFF7AFFE15B0F0BCBB46B246A946A04628
:1036C000F0BD0000F0B5DE4657464E464546E0B533
:1036D00091B083468A460C9298461A9C08941B9D8A
:1036E000099522002B002000290001F002FA002891
:1036F00000D0E5E001225242D74B2000290001F022
:10370000F3F9002800D0DBE001225242D34B200025
:10371000290001F0D3F9002800D0D1E000220023D5
:10372000089E3000099D290001F0C8F9002800D04A
:10373000DDE008980999069007918023DB001E9A26
:103740001A400D921E9A1A4201D106231C93069824
:10375000079904000D000A000600024300D1D1E0E1
:10376000080D4005400DBE4CA44660440A03120BF0
:10377000BC4B13431F0001F0CFF9BB4ABB4B01F018
:1037800052F9BB4ABB4B01F027F904000D0000229F
:10379000B94B3000390001F016F9B84AB84B01F0C6
:1037A00042F902000B002000290001F015F901F098
:1037B000CBF9814601F0B0F904000D00B14AB24BDB
:1037C00001F031F90022B14B01F006F901F0BCF92A
:1037D0000600AF4AAF4B2000290001F024F9040095
:1037E0000D00300001F098F9AB4AAC4B01F01BF929
:1037F00002000B002000290001F0E5F804000D0094
:1038000002000B0001F00FF90A900B91A44BF31882
:1038100000261F0522002B002000290001F0DCF803
:103820000E900F9122002B0000208021C90501F08D
:10383000CAF804000D0000229A4B0A980B9901F077
:10384000D4F80022984B01F0C7F802000B000A9848
:103850000B9901F0CAF80022944B01F0BDF8020068
:103860000B000A980B9901F0C0F802000B00200031
:10387000290001F0B1F802000B000E980F9901F039
:10388000B4F80022774B01F0A7F832003B0001F0BA
:10389000CAF806000F0004000D00069A079B01F00D
:1038A00023F9002830D001235B429C46E1440022EA
:1038B0007D4B3000390001F098F804000D0023E042
:1038C0001E9B04931D9B03931C9B0293089A099BC8
:1038D0000092019343460C9A5146584600F0FCF87A
:1038E00011B0F0BCBB46B246A946A046F0BD0023CD
:1038F000002406930794069680231B069C46654485
:1039000007951AE7002399464B466333C62B1ED80A
:1039100004261E9B1B0526D52B0023430FD0644A8B
:10392000644B0698079901F0D7F8002879D0002257
:10393000614B0698079901F0C1F8002871D01C9BD3
:103940004B4506DD4A46981A431E1C9303E00526A4
:10395000DFE700231C938023DB001E9A1A431E928C
:103960000026002399461D9B9E4264D29F1B022382
:103970001E9A1A400A921E9A134202D0002E00D0BC
:1039800000274B46002B07D022002B0006980799F2
:1039900001F02BF80690079100220023089809995E
:1039A00001F08CF8002848D1444B1E9A1340049330
:1039B00003971C9B0293069B079C0093019443462C
:1039C0000C9A5146584600F087F8002E00D187E740
:1039D0001E9B9B063DD54525441C4346020051468F
:1039E0002800D8474B46DA179B185340052205920A
:1039F000013E0496002203920A3202924A46D00FF8
:103A0000019000934346220051465846FFF78AFD35
:103A10000A9B002B00D163E702005F460C9E1D9DB0
:103A200054E01C9B002B9ED00D9B002B9BD01C9B1D
:103A3000013B1C9397E7002799E7069C079D22000E
:103A4000290080200006844661440B0006920793FB
:103A5000AAE76525C0E7C046FFFFEF7FFFFFEFFF46
:103A600001FCFFFF0000F03FFB799F501344D33F60
:103A7000B3C8608B288AC63F0000F83F61436F637C
:103A8000A787D23F71A379094F930A400000E03F16
:103A90001655B5BBB16B0240EF39FAFE422EE63F38
:103AA000FF03000000002C400000244000001840EC
:103AB0002D431CEBE2361A3F80842E41FFF7FFFFB7
:103AC000541C434651462020B8472200931BAB426A
:103AD000F6D3100004E7C046F0B5DE4657464E4622
:103AE0004546E0B595B00690079193469946209FCC
:103AF0001E9A1F9B1000190000F0FBFF002831D117
:103B000001225242BF4B1E981F9900F0D7FF002898
:103B100037D101225242BC4B1E981F9900F0E4FF9E
:103B200000283DD10022B94B1E981F9900F0DCFF00
:103B3000002850D10022B64B1E981F9900F0BEFFFE
:103B4000002848D1002200231E981F9900F0B6FFDC
:103B5000002850D100239846229B5B0500D4B6E094
:103B6000002458E0229B0393219B0293032301939B
:103B7000A84B00934B465A4607990698FFF7F2FB6D
:103B80000EE1229B0393219B029304230193A24BFA
:103B900000934B465A4607990698FFF7E3FBFFE070
:103BA0000423229A1A4022990B4210D09B4B002AE0
:103BB0000FD004222299039121990291019200933E
:103BC0004B465A4607990698FFF7CCFBE8E0944B22
:103BD000EDE70322EEE7229B0493219B03930297D8
:103BE0001E9B1F9C009301944B465A4607990698CA
:103BF000FFF768FDD4E01E9A1F9B0020002100F013
:103C0000E2FE1E901F9101239846A5E70CAB3022DF
:103C10001A55013F01341F2C01D8092FF6D81E98E0
:103C20001F9900F091FF050000F076FF02000B00E5
:103C30001E981F9900F0C7FEFA007A4B9B181A686D
:103C40005B680A920B9300F0EEFE0890099100F079
:103C50009FFF060000F05CFF02000B000898099926
:103C600000F0B1FE0890099100226F4B00F03CFF7C
:103C700000282ED00136300000F04AFF02000B0071
:103C80000A980B9900F020FF002801D0013500268A
:103C9000002F2CD1280000F03FFF02000B001E98DF
:103CA0001F9900F090FE06000F0000225E4B00F00E
:103CB00005FF002846D100225B4B3000390000F0A0
:103CC00013FF00283ED1EB073CD501353AE006272B
:103CD00046E70022544B0898099900F0EFFE0028AF
:103CE000D6D1002E01D0F307D2D50136D0E7AA46AF
:103CF0001F2C11D8013F0A21300000F029FC651C5F
:103D000030310CAB19550A21300000F021FC092E8E
:103D10000ED906002C00EBE755461F2C0CD87B1E55
:103D2000002F09D00CAA302111551F000134F4E7EF
:103D30002B0055461C00F0E71F2C03D80CAB2E229D
:103D40001A5501341F2C10D80A21280000F0D8FB86
:103D5000661C30310CAB19550A21280000F0D0FB4D
:103D6000051E01D03400EDE734000323229A1340EE
:103D7000012B1CD01F2C06D84346002B32D00CAB95
:103D80002D221A550134229B0393219B0293019407
:103D90000CAB00934B465A4607990698FFF7E2FA98
:103DA00015B0F0BCBB46B246A946A046F0BD219B6B
:103DB000002B13D04346002B02D10C3313420FD0FB
:103DC000219B013B2193190003E00CAB30221A55D3
:103DD00001348C42CED21F2CF7D9CBE72199F8E7DA
:103DE0002199F6E7229B5B0704D50CAB2B221A55D1
:103DF0000134C8E7229B1B07C5D50CAB20221A55FE
:103E00000134C0E7FFFFEFFFFFFFEF7F65CDCD413E
:103E100065CDCDC124CC001028CC00101CCC0010E6
:103E200018CC001010CE00100000E03FF0B5DE46C8
:103E300057464E464546E0B593B082468B4690467F
:103E40001193002900D1EBE200275546119B187809
:103E5000002800D1E7E2252809D07C1C43463A001F
:103E60005946A847119B013311932700EEE7013310
:103E700011930024119A11780B00203BD8B210281E
:103E800003D88300D048C3589F460B00303BDBB2B9
:103E9000092B2CD92A292FD000230A93119B1A7899
:103EA0002E2A39D000239A46119A1378683BD9B24A
:103EB000122976D88B00C549CB589F4601231C4355
:103EC00001321192D6E702231C4301321192D1E74D
:103ED00004231C4301321192CCE708231C43013216
:103EE0001192C7E710231C4301321192C2E711A8B7
:103EF000FFF726FA0A90D1E71C9B1A1D1C9218683E
:103F0000002804DB0A90119B01331193C6E70223BA
:103F10001C4343420A93F6E78022D20014435A1C02
:103F200011925A781300303BDBB2092B04D92A2AAC
:103F300007D000239A46B7E711A8FFF701FA824697
:103F4000B2E71C9B1A1D1C921868002804DB8246ED
:103F5000119B01331193A7E70020F8E780235B0052
:103F60002343511C119152786C2A01D01C0018E097
:103F7000C0239B001C430131119112E08023234395
:103F8000511C11915278682A01D01C0009E0C0230D
:103F90001C430131119104E080235B001C4301327A
:103FA0001192119B18780300253BDAB2532A00D9ED
:103FB0002CE29300864AD3589F4680239B001C43E3
:103FC00001321192EDE780235B001C430132119214
:103FD000E7E7782809D0582838D06F2838D06228E9
:103FE00038D010239C430A2600E01026582833D0EE
:103FF000692803D0642801D00C229443630501D5BD
:104000000122944369282AD0642828D0A30500D52A
:104010009FE0E30500D5B8E0630600D4CAE01C9A2F
:10402000111D1C911168FF220A4005940A9B0493FC
:1040300053460393029600230193009243463A00AD
:1040400059462800FFF76EFA070027E01026CDE753
:104050000826CBE70226C9E720221443C8E7A305B8
:1040600020D4E30550D4630666D51C9A111D1C911B
:104070001168FF220A40D317D118594005940A9BB2
:104080000493534603930296D20F01920091434644
:104090003A0059462800FFF745FA0700119B013303
:1040A0001193D3E61C9BDA1D07218A4311000831C6
:1040B0001C91116853689C46DB170C930D930C9A66
:1040C0000D9B100048400E90624653400F930E988F
:1040D0000F990C9A0D9B801A99410E900F9108949C
:1040E0000A9B079353460693049600230593634661
:1040F000DA0F02920090019143463A005946280097
:10410000FFF76EFA0700C9E71C9A111D1C9112688F
:10411000D317D118594005940A9B0493534603932F
:104120000296D20F0192009143463A005946280068
:10413000FFF7F8F90700B1E7230605D51C9A111D12
:104140001C910023D25E96E71C9A111D1C911268E7
:1041500091E71C9BDA1D07218A43110008311C914D
:1041600008940A9B079353460693049600230593ED
:104170000293136854680093019443463A005946E9
:104180002800FFF72DFA070088E71C9A111D1C91E3
:1041900005940A9B049353460393029600230193CC
:1041A0001368009343463A0059462800FFF7BAF9CE
:1041B000070073E723060DD51C9A111D1C91126888
:1041C0001204120C31E7C04630CC001074CC001041
:1041D000C0CC00101C9A111D1C91126825E74628BE
:1041E0001AD01C9B0733072293431A0008321C92F3
:1041F00004940A9A0392524602925C681B680093E8
:10420000019443463A0059462800FFF765FC070031
:10421000119B0133119319E620231C43E1E7672822
:1042200001D0472802D180231B011C43452801D01F
:10423000472801D120231C431C9B073307229343AB
:104240001A0008321C9204940A9A0392524602926F
:104250005C681B680093019443463A005946280065
:10426000FFF730FA0700119B01331193EEE50223AB
:104270001A002240924623421FD001241C9B1A1D83
:104280001C927A1C9146187843463A005946A84732
:104290005346002B16D1119B013311934F46D5E5A0
:1042A000561C434659462020B847230032005C1C68
:1042B0009D42F5D83D001700E0E701233A002F00AA
:1042C0000A9DF4E74A46A9460A9D06E0571C434664
:1042D00059462020C84734003A00661CA542F5D84C
:1042E0004D469146D7E71C9B1A1D1C921B689946A8
:1042F0005346002B00D1013B4E4601E0013613002E
:104300003278002A02D05A1E002BF7D14B46F21AFF
:1043100010928023DB0026001E401C4203D0524531
:1043200001D95346109302231A0022400B922342D4
:1043300005D03A0037004C46A946554620E03A00E1
:10434000109B5F46B3462E0006E0551C43463900DD
:104350002020B04723002A005C1C0A999942F4D817
:1043600035005E46BB46109437004C46A94655467C
:1043700006E01D000134561C43465946C84732002A
:104380002078002804D0002FF4D06B1E002DF0D12F
:1043900017004D460B9B002B03D1119B013311934A
:1043A00054E50A9F109B06E0561C434659462020C0
:1043B000A847230032005C1C9F42F5D81700ECE7A9
:1043C00021231C431C9B1A1D1C921B6800930594FF
:1043D000082304935346039310230293002301936D
:1043E00043463A0059462800FFF79CF80700119B06
:1043F000013311932AE57C1C43463A005946252097
:10440000A847119B0133119327001FE57C1C4346ED
:104410003A005946A847119B01331193270015E52F
:104420000A4B9A4610E5AA46474502D343465A1E10
:1044300000E03A00434659460020D047380013B008
:10444000F0BCBB46B246A946A046F0BD31330010D1
:104450000EB410B585B0010007AC08CC039401225E
:10446000009452420348FFF7E1FC05B010BC08BCC1
:1044700003B018472933001000B585B002900391AE
:104480000121009313004A4202A90248FFF7CEFC23
:1044900005B000BD3333001001480421014B18471B
:1044A000C0020020C944001010B5010018231B8869
:1044B00014221088984710BD10B5010018231B88DE
:1044C00016221088984710BDF0B5C64600B5070003
:1044D0000E0000250123984600E00135B5420AD2BE
:1044E000AC003C192068FFF7DFFF20600028F4D102
:1044F00000239846F1E7404680BCB846F0BD000076
:10450000124A936F9B0815D29066D166002905D098
:10451000FFE7FFE7FFE7516F106F704704B5802199
:104520000906C2175140002800D0C84307F0ECF933
:10453000002104BDF0B5146E556E576F166FFFF76E
:10454000E3FF1466556657671667F0BD000000D09C
:10455000114A936F9B0813D210665166002905D04B
:10456000FFE7FFE7FFE7516F106F704704B50028C2
:1045700001D00020C04307F0C7F9002104BDC046A8
:10458000F0B5146E556E576F166FFFF7E5FF1466A2
:10459000556657671667F0BD000000D094464A4A3A
:1045A000926F9208624601D228E0C046F0B5464EAE
:1045B000346E756E776F366F00F020F89446424A7D
:1045C00014665566576716676246F0BD94463E4AC4
:1045D000926F9208624601D254E0C046F0B53A4E5E
:1045E000346E756E776F366F00F04CF89446364A2D
:1045F00014665566576716676246F0BD002B24DBCC
:1046000011D000293EDA00B5C943404200D1013142
:1046100000F038F8C943404200D10131DB43524237
:1046200000D1013300BD002AEBD1002801D10029BF
:1046300005D00020C90FC90701D1C043410800B50A
:1046400007F05AF90022002300BD00B500290ADB5B
:10465000DB43524200D1013300F014F8C943404219
:1046600000D1013100BDC943404200D10131DB43DB
:10467000524200D1013300F005F8DB43524200D131
:10468000013300BD002923D1002B18D1002A0CD002
:10469000BC460D4F38667A6600210023FFE7FFE72E
:1046A000FFE77A6F386F67467047002801D00748E8
:1046B000010000B507F020F90022002300BD020030
:1046C0000B00002000217047000000D0FFFFFFFF1B
:1046D000002B00D0BFE0130C28D1002AE7D080B413
:1046E000114F39667A66FFE7FFE730B4040C7B6F41
:1046F000396F1B0423433B667A66FFE7FFE7FFE75A
:10470000C04684B27B6F3D6F1B0423433B667A66D1
:10471000FFE7FFE7C04600232C042D0C7A6F386FAB
:1047200000196941B0BC7047000000D0F0B5944654
:104730000025140E01D112020835140F01D1120107
:104740000435940F01D192000235D40F01D15200EB
:104750000135D40B0134254F7C66254C3C660E0C8C
:1047600093B2FFE7FFE7FFE73C6F6643360C770342
:10477000BE467343DF0B5B04C01AB941130C73438D
:10478000DB18C91ACE086643360CB64493B273439D
:104790001F0F1B01C01AB941130C73431F0B1B05DC
:1047A000C01AB941860D8F023E436643360C092D6F
:1047B00024DB520A7243801A7703460A6643360C9A
:1047C00016235B1BDE40DF40BF1964466643821B35
:1047D0007046043506330100D940A840C01900D303
:1047E0000131A24206D20023F0BD0000000000D03B
:1047F000FFFFFFFF121B0130F3D3F1E709277F1BF7
:10480000FE406446A2B27243801A00D20139220CE3
:104810007243130C1204821A99410B00704604353E
:1048200013370100F940A840801900D30131002B53
:1048300002D1A2420AD2F0BD013000D30131121BD5
:10484000FAD2013BF8D1A24200D2F0BD013000D330
:104850000131121BF7E7F0B51C0C00D080E00CB45E
:1048600000251C0A04D11B02160E33431202083520
:104870001C0B04D11B01160F3343120104359C0B92
:1048800004D19B00960F334392000235DC0B02D11A
:1048900092185B4101351C00971864410134464F62
:1048A0007C66464C3C660E0CFFE7FFE7FFE7C04620
:1048B0003C6F6643360C7703BE4697B27743C01B06
:1048C00000D20139C01B00D201399FB27743C91B06
:1048D000C91B170C77437E04FF0B801BB941CE0820
:1048E0006643360C0C2D33DBB644120B1F053A43DE
:1048F0001B0B97B27743C01B00D201399FB277439D
:10490000C91B170C77433E043F0C801BB941860D31
:104910008F023E43664329277F1BFE400C3D7746AE
:10492000AF40BF1930BCA2B2ABB272437343801A1E
:104930009941220C7243130C1204801A994102000F
:104940000B000137001BA941F9D2781E0021F0BDF0
:104950000C277F1BFE4077467F0BAF40FF19E0E737
:1049600000245D1C07D0144F7D663966FFE7FFE722
:10497000FFE7FFE73C6F95B29EB265436643401B7D
:10498000B141150C1E0C6543664336042F0C3E43A3
:104990002D04401BB141994204D202000B002000BB
:1049A0000021F0BD01D19042F7D3801A9941013422
:1049B0009942F2D3F6E70000000000D0FFFFFFFFAE
:1049C00048404140484018B41B4B5B68FC4601938B
:1049D00008BD04DF334D001018B4174B1B68FC46AC
:1049E000019308BD00DF3D4D00109446134A926FBD
:1049F000920809D2624618B40F4BDB68FC4601935B
:104A000008BD0CDFF54F00100C4AF0B5146E556E62
:104A1000576F166F6246FFF7EEFF084A1466556639
:104A200057671667F0BD18B4034B9B68FC460193AB
:104A300008BD08DF994E0010100F0020000000D0C4
:104A4000FFB550404240504059404B40594000E073
:104A5000FFB5154F4C00640D03D0BC4204D10C03CC
:104A600014D80020090D09055C00640D03D0BC4278
:104A700004D11C030AD800221B0D1B0501264B4044
:104A800009D44B4003D58B4200D18242FFBD9942ED
:104A9000FCD19042FFBD0B43DB1803431343F5D019
:104AA000C9434918FFBD0000FF07000000B5FFF72C
:104AB000CFFF01D0002000BD012000BD00B5FFF7F1
:104AC000C7FF804100BDC04600B5FFF7C1FF01D957
:104AD000002000BD012000BD00B5FFF7B1FF01D9E6
:104AE000002000BD012000BD00B5FFF7A9FF8041F7
:104AF00000BD012040054A00121804D85A001218BF
:104B000001D8002070470120704700207047000046
:104B10000021002805D17047C1174840401AFAD03B
:104B2000C90713B5064B1B6898470CBC441CA24030
:104B30001005120B0349091B09051943114310BD48
:104B4000101000201F04000010B54C00620D8023DF
:104B5000D218DB00D21A5B057E2A10DD9E3A13DAEA
:104B6000CC170903490819435242D140640001346B
:104B70001532202A05DAD0400843604310BD0020DA
:104B800010BD0846604310BDC80FC018013810BDE5
:104B900018B4044B5B6AFC46019308BD24DFA551A1
:104BA00000100000100F002018B4044BDB6DFC4611
:104BB000019308BD5CDFB15200100000100F00200F
:104BC000C94211D300B549004908002200F018F885
:104BD000002904D4002240428A41114600BD8021B0
:104BE0000906002000BD000018B4044BDB6EFC4633
:104BF000019308BD6CDFB35100100000100F0020BE
:104C000018B4044B9B6FFC46019308BD78DFCF516D
:104C100000100000100F002018B4044BDB6FFC469E
:104C2000019308BD7CDF3D5200100000100F0020F2
:104C300070B513231C78012C14D0012C14DC022C29
:104C400002DC1F4A1F4B9A641F48FFF72DFC1F4BC5
:104C5000186070BD99001A481A4A885001331F2BFA
:104C6000F8D9EAE70023FAE71948FFF725FC050021
:104C70001848FFF721FC023803789B007F2B19DDD1
:104C8000802229000F4800F067FC022CD7D1124B7C
:104C90001A88B5231B029A4209D1104B1A88104B6F
:104CA0009A4204D10F4B1A880F4B9A42C7D000206A
:104CB000FEF722FB0D4B0E4A32210E48FEF782FA18
:104CC000F94C0010100F00204C3300001010002091
:104CD000534400005346000054380000D838000008
:104CE000494600009C3800005946000060CE001084
:104CF00000CF0010B4CE001007B56046002800D1E8
:104D000000BE01880A0A0230DF2AFAD1C9B282083D
:104D100004D3028840880004104300E00068024A7F
:104D20005050039007BD0000100F00200FB403BCCB
:104D30000CBCF0B50124E407634000E0F0B50C0DB5
:104D4000CF0F661E3605891B640503D3C943404255
:104D500000D30131640D03D0661CF60A07D0E41BB2
:104D600000207F00791C89078912803C24031D0DD7
:104D7000DF0F6E1E36059B1B6D0503D3DB435242CE
:104D800000D301336D0D03D06E1CF60A07D0ED1B66
:104D900000227F007B1C9B079B12803D2D032F1B55
:104DA000661B58D4A446202E46DA20371400BC4097
:104DB0001D00BD40F24033412A4380185941CB0FBA
:104DC00005D0C943C043002264425041514162466C
:104DD0004D0D28D10D0D07D100281FD024194041B9
:104DE0004941013A0D0DF9D0640006D3013000D3DA
:104DF0000131002C01D140084000013A0BD4941C31
:104E0000E40A04D112051144DB071944F0BDD907A7
:104E1000204B194300E0D9070020F0BD0029DDD167
:104E2000002CDBD1F0BD0132C6074008CD07284376
:104E30004908002EE1D0D9E73C2E29DA203E403740
:104E40001400BC4000D00124F24014431A00BB40BF
:104E50001C43D317ACE7AC46202F08DA20360400F9
:104E6000B4400D00B540F84039412843A5E73C2F38
:104E70000CDA203F40360400B44000D00124F84052
:104E800004430800B1400C43C117EAE710001900C1
:104E9000002494E70000F07FF0B50C0D661E360587
:104EA000891BE60A6405640D02D0651CED0A04D076
:104EB000002001210905803C2403A4461C0D671E27
:104EC0003F05DB1BE70A6405640D02D0651CED0A93
:104ED00004D0002201231B05803C24037740644456
:104EE00097B484B296B27443070C7E43150C6F439B
:104EF00080B26843361802D3012000043F18300402
:104F0000350C00197D41844688B29AB250430C0C8E
:104F100062431F0C7C438EB27E43921902D301265A
:104F20003604A4191604170C3618674101BC81B267
:104F30009AB25143040C62431B0C5C4380B2584349
:104F4000121802D30120000424181004130C401876
:104F500063412D185E410020474106BC88B293B2E0
:104F600058430C0C6343120C544389B251435B18F1
:104F700002D301210904641819041A0C09186241AA
:104F80006D1856410020474118BCF902720D1143BB
:104F9000F0026A0D1043ED020A0D03D16D19404174
:104FA0004941013B124E9B1B7600B3420ED26D006D
:104FB00007D30130002671416646354301D14008D0
:104FC00040001B05C918E4072144F0BD0BDA01338A
:104FD00006D1013004D101314F0D01D04908F2E76B
:104FE000E1070020F0BD013631050020EBE70000AD
:104FF000FF030000F0B51C0D671E3F05DB1BE70A31
:105000006405640D02D0661CF60A04D00022012358
:105010001B05803C2403D0252D060026F6432E6672
:105020001E096E66CE0FF619B44649004F0D02D028
:105030007E1CF60A03D000200021403F3F033E1BA8
:10504000B600B444013F7F05C91B49082E6F0136E5
:1050500076089C02950D25437543ED137543AD13FA
:1050600001356D10F603761B0CB4CC02450D2C43B4
:10507000A2B2B3B25A43270C7B43350C6F43A4B2A0
:105080006C431B1902D3012424043F191C041D0C7A
:10509000A4187D4124196D41009A91B2ACB26143CC
:1050A000170C7C432B0C5F4392B25A43A41802D3D3
:1050B00001221204BF182204230C52187B41019CC8
:1050C0006C431B19520ED9010A434401A01A81B244
:1050D000B2B2514303145A43360C734387B2774339
:1050E000D617D21900277E4136049B191704160CD7
:1050F0007F185E417316ED18F30100268033754169
:10510000A90F06D16400690AE8055B0A184309D2B1
:105110002FE00422944480337541A90AA8059B0A14
:10512000184326D3404149412404009A019B0D00B5
:105130005543641B4343E41A95B286B27543170C7A
:105140007E43030C5F4392B25A43B61802D3012246
:105150001204BF183204330C52197B4152429C4155
:10516000002C02D40022013051414008CA071043EC
:10517000490802B06246D7079210084BD218084B74
:105180009A4203D212058918C919F0BD0020002ADD
:1051900001DC3900F0BD01331905F5E7FD0300001E
:1051A000FE070000002200B5203200F010F80800D1
:1051B00000BD002200B500F00CF8CA179A4200D1D9
:1051C00000BDD8430121C907414000BD00220B1595
:1051D0000AD410B5944600F0A7F81414013400DA8C
:1051E0000021CB17144C2047002000217047624457
:1051F000343A0CD40C2A07DA040091409040524211
:105200002032D440214310BDD843D94310BD2032B1
:1052100007D40C469440524220321141D0402043E2
:1052200010BD0800C917203203D452422032104169
:1052300010BD1800190010BDEF5100104A00520DAA
:10524000144BD21A13DDFF2A1EDAD205CB0FDB076F
:105250001A43C300400F0903490A084310435B0087
:1052600001D301D0013070474308FBD2704702D010
:10527000C80FC00770470A0312130132F8D1420F5A
:10528000072AF5D1012200E0FF22C80F0002801892
:10529000C00570478003000000210A00002104E0DF
:1052A00000210A00C11704E00022002306E0C046E6
:1052B0000022CB1758405940C01A994130B5184CBC
:1052C000A21A002903D1010010D00020203A4C1569
:1052D00012D104D2013A001849414C0DFAD3114CB5
:1052E000A24204D212058918DB07C91830BDD24387
:1052F000520D00200021F5E703D4013A001849417E
:10530000FBD50B324405C00A4D052843C90A640089
:1053100003D0002460416141E1E7E0D34408F8E7AD
:1053200032040000FE0700000A0DCC0F531E1B05BF
:10533000C91A520503D3C943404200D30131520D6B
:1053400003D0531CDB0A07D0121B00206400611C31
:1053500089078912803A1203014BD21A7047000064
:10536000FF03000051434343C9188C46110C83B21C
:105370004B4310B4040C614392B280B25043624379
:105380001C041B0C001910BC59411304120CC0184A
:10539000514161447047000070B513231D782A48BD
:1053A000FFF78AF80400012D11D0012D09DDA31E9D
:1053B0001B789B007F2B40DD80222100234800F0DA
:1053C000CBF82348FFF770F8224B186070BD5422C9
:1053D00001001E4800F0C0F81F4B1A881F4B9A426C
:1053E0001CD1A7239B011A881D4B9A4216D11D4B35
:1053F0001A881D4B9A4211D11C4B1A8894239B0189
:105400009A420BD11A4B1A881A4B9A4206D11A4B60
:105410001A681A4B9A4201D1152307E01848FDF784
:105420006BFF99001748094A885001331F2BF8D9A0
:10543000144A064B1A62DA61B7E7134B134A42214A
:105440001348FDF7BFFEC04653460000141000206D
:105450004C33000010100020EE290000C40F0000A3
:10546000C20D0000962B0000C0B50000182B0000F4
:10547000CC2A000010B50000FC2C000051ED876420
:1054800048BD00109554001014CF001090CF0010AC
:1054900048CF001007B56046002800D100BE018843
:1054A0000A0A0230DF2AFAD1C9B2820804D302887C
:1054B00040880004104300E00068024A5050039006
:1054C00007BD00001410002010B5040000F09EFB82
:1054D000002804D00419034B9C4200D810BD024898
:1054E000FDF70AFF00000420A4CF001010B50C0047
:1054F00000F02CFB002804D00419034B9C4200D878
:1055000010BD0248FDF7F8FE00000420A4CF0010F3
:1055100010B50C0000F07AFE002804D00419034BEB
:105520009C4200D810BD0248FDF7E6FE00000420B2
:10553000A4CF001010B500F073FB10BD014804218A
:10554000014B1847D0020020C9440010014B1B68D2
:1055500018470000D0020020014B5B68184700008C
:10556000D002002010B50300080011001B68984706
:1055700010BD0000F8B507000D001600437D002B9C
:1055800002D0002400200CE0036811002800984796
:105590002DE03B7D10E0022115483B689847601CD8
:1055A0000134B44214DA002CF3DD2B19013B1B78D3
:1055B0000D3B5A425341DBB22A5D0A2AF0D1002B3F
:1055C000EED1A042E7DA211A28183B689847E2E7B3
:1055D000B04203DA311A28183B689847002E06DDDE
:1055E000AD19013D2B780D3B5A4253413B75F8BD37
:1055F00024D0001070B505000368002B16D00C4BAA
:105600001C6805E0290004C92000FFF7B3FF2469E6
:10561000002C09D02368002BF9D0064B1B68002B07
:10562000F0D0A342F3D1EDE700232B6070BDC0465C
:10563000C80E0020D00E002070B505000C000B68CD
:10564000802B05D021684B1C23606418257170BD28
:105650000800FFF7CFFFF5E7F0B583B007000E00B5
:105660000092019328E0A368002B04D03100380099
:105670009847002827DC2469002C06D0134B1D68AE
:10568000002DF0D0A542F6D1EDE70099019A104B1C
:105690005B6A9A4209D80E48806A88420FD29A42C1
:1056A00001D0012302E0002300E00023002B08D1F9
:1056B00001200021FCF7C0FF064B1C68DCE701233A
:1056C000F4E70120404203B0F0BDC046D00E0020F8
:1056D00000400540C80E002010B5FCF78DFF020009
:1056E0000B1E0BDB0D48002112184B41002B0BDB6E
:1056F000002B0DDB0A4806F00FF910BD094B0A4AD2
:105700003F210A48FDF75EFD01225242084BEFE7B8
:10571000044B054A3F210548FDF754FD40420F0068
:10572000A80C0020A8C000100CD00010C4C00010AD
:10573000FFFFFF7F10B5024806F0D6F810BDC04647
:10574000A80C0020F0B5CE46474680B583B00600D1
:105750000D0090461C00FFF7BFFF81466B1C05D073
:10576000002C08D0194F1A4B1C6807E0300000F0DD
:1057700093FF0500F4E7174FF5E72469002C17D0D5
:105780002368002BF9D0144B1B68002B01D0A342D7
:10579000F3D12A0031002000B8474346002BECD05B
:1057A0006B46D91D0A230B7001222000B847E4E79D
:1057B0004B46002B07D16B1E9D41E8B203B0C0BC25
:1057C000B946B046F0BDFFF7B5FFF4E765550010E8
:1057D000C80E002075550010D00E002010B582B004
:1057E00004006B46D81D0470002300220121FFF73E
:1057F000A9FF200002B010BD10B503000800110081
:10580000002B05D1044B1A685B68FFF725FF10BD1C
:1058100001204042FBE7C046F8C7001010B5030066
:1058200008001400013B012B06D8002300222100B0
:10583000FFF788FF200010BD01204042FBE7012058
:10584000404270470120404270470120404270476B
:105850000300002002229A4240417047094A01E0B9
:1058600010331A001368002B08D08342F8D10029A6
:1058700007D1036913600023036102E0002900D00F
:1058800010607047C80E002010B5064B1C6801E080
:1058900098472469002C03D06368002BF8D1F8E7FF
:1058A00010BDC046C80E002070B5050000F0F4FE23
:1058B00004000023012201002800FFF743FFFFF747
:1058C000E3FF200070BD000070B5A2B004000E0020
:1058D000FFF702FF0500002301933300220001A916
:1058E0000848FEF7C9FD040001A8FFF783FEFFF793
:1058F000CBFF002D02D1200022B070BDFFF71AFFB0
:10590000F9E7C046395600100FB400B583B004A9BA
:1059100001C90191FFF7D8FF03B008BC04B01847D4
:1059200010B500F0F9F8012010BD0000F0B583B00B
:1059300005000E0000240FE06B46D91D0D230B70EF
:105940000020002816D193699B06FCD40B781360C5
:1059500001300131F5E70134B44219DA0D4B1A6810
:105960002F5D0D4BD31859424B415B000B495B5ED9
:10597000BB42E1D06B46D91D0F7000200028EAD150
:1059800093699B06FCD40B78136001300131F5E775
:1059900003B0F0BD3C1100200080FCBF3811002096
:1059A000F0B583B006000F00002504E06B46073316
:1059B0001B782B702500BD4215DA174B1A689369C6
:1059C0001024210019401C420DD16C1C75196B4626
:1059D000D81D0029EAD19369DB06FCD41368037053
:1059E00001310130F5E70D4B1B68002B0CD00A4B41
:1059F0001A685023936311003431536B38221A40D4
:105A000080235B010B431A60002D02D0280003B0F5
:105A1000F0BD033DFAE7C0463C110020540E0020C3
:105A200010B5064B1B68002B06D0054A12680021F2
:105A30009163044A1068984710BDC046540E002078
:105A40003C110020580E002070B504000E001C4BC5
:105A50001B681C4A98184242504114300500002C23
:105A600003D0194A1268002A06D0002C19D0164B10
:105A70001C60164B1E6070BD1549FBF7A3FD01218C
:105A80002800FBF78FFD0E4B1A685023936311001B
:105A90003431536B38221A4080235B010B431A6068
:105AA000E5E7094A1268002AE1D000229A63002142
:105AB0002800FBF777FD06492800FBF7ADFDD6E788
:105AC0003C1100200080FCBF540E0020580E002026
:105AD000215A001070B50D001C000D4B1860002AF3
